{
  "_format": "hh-sol-artifact-1",
  "contractName": "GetBallot2",
  "sourceName": "contracts/facets/GetBallot2.sol",
  "abi": [
    {
      "inputs": [
        {
          "internalType": "uint256",
          "name": "_ballotType",
          "type": "uint256"
        }
      ],
      "name": "getNewBallot2",
      "outputs": [],
      "stateMutability": "nonpayable",
      "type": "function"
    }
  ],
  "bytecode": "0x608060405234801561001057600080fd5b50615322806100206000396000f3fe608060405234801561001057600080fd5b506004361061002b5760003560e01c8063d0e83c7b14610030575b600080fd5b61004a60048036038101906100459190610435565b61004c565b005b60058114156100c257604051610061906103b9565b604051809103906000f08015801561007d573d6000803e3d6000fd5b506000806101000a81548173ffffffffffffffffffffffffffffffffffffffff021916908373ffffffffffffffffffffffffffffffffffffffff16021790555061031f565b6006811415610138576040516100d7906103c6565b604051809103906000f0801580156100f3573d6000803e3d6000fd5b506000806101000a81548173ffffffffffffffffffffffffffffffffffffffff021916908373ffffffffffffffffffffffffffffffffffffffff16021790555061031e565b60078114156101ae5760405161014d906103d3565b604051809103906000f080158015610169573d6000803e3d6000fd5b506000806101000a81548173ffffffffffffffffffffffffffffffffffffffff021916908373ffffffffffffffffffffffffffffffffffffffff16021790555061031d565b60088114156102305760006040516101c5906103e0565b6101cf91906104a7565b604051809103906000f0801580156101eb573d6000803e3d6000fd5b506000806101000a81548173ffffffffffffffffffffffffffffffffffffffff021916908373ffffffffffffffffffffffffffffffffffffffff16021790555061031c565b60098114156102b2576001604051610247906103e0565b61025191906104fd565b604051809103906000f08015801561026d573d6000803e3d6000fd5b506000806101000a81548173ffffffffffffffffffffffffffffffffffffffff021916908373ffffffffffffffffffffffffffffffffffffffff16021790555061031b565b6040516102be906103ed565b604051809103906000f0801580156102da573d6000803e3d6000fd5b506000806101000a81548173ffffffffffffffffffffffffffffffffffffffff021916908373ffffffffffffffffffffffffffffffffffffffff1602179055505b5b5b5b5b60008054906101000a900473ffffffffffffffffffffffffffffffffffffffff1661034861038c565b60000160006101000a81548173ffffffffffffffffffffffffffffffffffffffff021916908373ffffffffffffffffffffffffffffffffffffffff16021790555050565b6000807f5b43f313088137496832405d64cc708765db93c8144d82f7a7f806ac22d5603b90508091505090565b6110a98061051983390190565b610d8d806115c283390190565b610fdb8061234f83390190565b6112658061332a83390190565b610d5e8061458f83390190565b600080fd5b6000819050919050565b610412816103ff565b811461041d57600080fd5b50565b60008135905061042f81610409565b92915050565b60006020828403121561044b5761044a6103fa565b5b600061045984828501610420565b91505092915050565b6000819050919050565b6000819050919050565b600061049161048c61048784610462565b61046c565b6103ff565b9050919050565b6104a181610476565b82525050565b60006020820190506104bc6000830184610498565b92915050565b6000819050919050565b60006104e76104e26104dd846104c2565b61046c565b6103ff565b9050919050565b6104f7816104cc565b82525050565b600060208201905061051260008301846104ee565b9291505056fe608060405234801561001057600080fd5b50611089806100206000396000f3fe608060405234801561001057600080fd5b50600436106100885760003560e01c8063afa524081161005b578063afa5240814610115578063c4d66de814610133578063de2e19a01461014f578063e844d0971461017f57610088565b806306a49fce1461008d57806330a56347146100ab578063521b0dcc146100c9578063a1818ac4146100f9575b600080fd5b61009561019b565b6040516100a291906108f2565b60405180910390f35b6100b36101f3565b6040516100c09190610923565b60405180910390f35b6100e360048036038101906100de91906109b0565b6101ff565b6040516100f091906109f8565b60405180910390f35b610113600480360381019061010e9190610b98565b610255565b005b61011d6105fa565b60405161012a9190610d4c565b60405180910390f35b61014d600480360381019061014891906109b0565b610699565b005b61016960048036038101906101649190610d6e565b61074e565b6040516101769190610923565b60405180910390f35b61019960048036038101906101949190610dae565b610794565b005b606060008054806020026020016040519081016040528092919081815260200182805480156101e957602002820191906000526020600020905b8154815260200190600101908083116101d5575b5050505050905090565b60008080549050905090565b6000600160008373ffffffffffffffffffffffffffffffffffffffff1673ffffffffffffffffffffffffffffffffffffffff16815260200190815260200160002060009054906101000a900460ff169050919050565b600260009054906101000a900473ffffffffffffffffffffffffffffffffffffffff1673ffffffffffffffffffffffffffffffffffffffff163373ffffffffffffffffffffffffffffffffffffffff16146102e5576040517f08c379a00000000000000000000000000000000000000000000000000000000081526004016102dc90610e5e565b60405180910390fd5b60001515600160008673ffffffffffffffffffffffffffffffffffffffff1673ffffffffffffffffffffffffffffffffffffffff16815260200190815260200160002060009054906101000a900460ff16151514610378576040517f08c379a000000000000000000000000000000000000000000000000000000000815260040161036f90610eca565b60405180910390fd5b600081519050600060038054905014156104305760005b8181101561042e5760038267ffffffffffffffff8111156103b3576103b2610a55565b5b6040519080825280602002602001820160405280156103e15781602001602082028036833780820191505090505b5090806001815401808255809150506001900390600052602060002001600090919091909150908051906020019061041a9291906107c0565b50808061042690610f19565b91505061038f565b505b60005b8181101561059b57600060018261044a9190610f62565b90505b828110156105875783818151811061046857610467610fb8565b5b602002602001015184838151811061048357610482610fb8565b5b602002602001015111156104e657600382815481106104a5576104a4610fb8565b5b9060005260206000200181815481106104c1576104c0610fb8565b5b9060005260206000200160008154809291906104dc90610f19565b9190505550610574565b8381815181106104f9576104f8610fb8565b5b602002602001015184838151811061051457610513610fb8565b5b60200260200101511015610573576003818154811061053657610535610fb8565b5b90600052602060002001828154811061055257610551610fb8565b5b90600052602060002001600081548092919061056d90610f19565b91905055505b5b808061057f90610f19565b91505061044d565b50808061059390610f19565b915050610433565b5060018060008773ffffffffffffffffffffffffffffffffffffffff1673ffffffffffffffffffffffffffffffffffffffff16815260200190815260200160002060006101000a81548160ff0219169083151502179055505050505050565b60606003805480602002602001604051908101604052809291908181526020016000905b828210156106905783829060005260206000200180548060200260200160405190810160405280929190818152602001828054801561067c57602002820191906000526020600020905b815481526020019060010190808311610668575b50505050508152602001906001019061061e565b50505050905090565b60001515600260149054906101000a900460ff161515146106ef576040517f08c379a00000000000000000000000000000000000000000000000000000000081526004016106e690611033565b60405180910390fd5b80600260006101000a81548173ffffffffffffffffffffffffffffffffffffffff021916908373ffffffffffffffffffffffffffffffffffffffff1602179055506001600260146101000a81548160ff02191690831515021790555050565b60006003838154811061076457610763610fb8565b5b9060005260206000200160018154811061078157610780610fb8565b5b9060005260206000200154905092915050565b600081908060018154018082558091505060019003906000526020600020016000909190919091505550565b8280548282559060005260206000209081019282156107fc579160200282015b828111156107fb5782518255916020019190600101906107e0565b5b509050610809919061080d565b5090565b5b8082111561082657600081600090555060010161080e565b5090565b600081519050919050565b600082825260208201905092915050565b6000819050602082019050919050565b6000819050919050565b61086981610856565b82525050565b600061087b8383610860565b60208301905092915050565b6000602082019050919050565b600061089f8261082a565b6108a98185610835565b93506108b483610846565b8060005b838110156108e55781516108cc888261086f565b97506108d783610887565b9250506001810190506108b8565b5085935050505092915050565b6000602082019050818103600083015261090c8184610894565b905092915050565b61091d81610856565b82525050565b60006020820190506109386000830184610914565b92915050565b6000604051905090565b600080fd5b600080fd5b600073ffffffffffffffffffffffffffffffffffffffff82169050919050565b600061097d82610952565b9050919050565b61098d81610972565b811461099857600080fd5b50565b6000813590506109aa81610984565b92915050565b6000602082840312156109c6576109c5610948565b5b60006109d48482850161099b565b91505092915050565b60008115159050919050565b6109f2816109dd565b82525050565b6000602082019050610a0d60008301846109e9565b92915050565b610a1c81610856565b8114610a2757600080fd5b50565b600081359050610a3981610a13565b92915050565b600080fd5b6000601f19601f8301169050919050565b7f4e487b7100000000000000000000000000000000000000000000000000000000600052604160045260246000fd5b610a8d82610a44565b810181811067ffffffffffffffff82111715610aac57610aab610a55565b5b80604052505050565b6000610abf61093e565b9050610acb8282610a84565b919050565b600067ffffffffffffffff821115610aeb57610aea610a55565b5b602082029050602081019050919050565b600080fd5b6000610b14610b0f84610ad0565b610ab5565b90508083825260208201905060208402830185811115610b3757610b36610afc565b5b835b81811015610b605780610b4c8882610a2a565b845260208401935050602081019050610b39565b5050509392505050565b600082601f830112610b7f57610b7e610a3f565b5b8135610b8f848260208601610b01565b91505092915050565b60008060008060808587031215610bb257610bb1610948565b5b6000610bc08782880161099b565b9450506020610bd187828801610a2a565b9350506040610be287828801610a2a565b925050606085013567ffffffffffffffff811115610c0357610c0261094d565b5b610c0f87828801610b6a565b91505092959194509250565b600081519050919050565b600082825260208201905092915050565b6000819050602082019050919050565b600082825260208201905092915050565b6000610c638261082a565b610c6d8185610c47565b9350610c7883610846565b8060005b83811015610ca9578151610c90888261086f565b9750610c9b83610887565b925050600181019050610c7c565b5085935050505092915050565b6000610cc28383610c58565b905092915050565b6000602082019050919050565b6000610ce282610c1b565b610cec8185610c26565b935083602082028501610cfe85610c37565b8060005b85811015610d3a5784840389528151610d1b8582610cb6565b9450610d2683610cca565b925060208a01995050600181019050610d02565b50829750879550505050505092915050565b60006020820190508181036000830152610d668184610cd7565b905092915050565b60008060408385031215610d8557610d84610948565b5b6000610d9385828601610a2a565b9250506020610da485828601610a2a565b9150509250929050565b600060208284031215610dc457610dc3610948565b5b6000610dd284828501610a2a565b91505092915050565b600082825260208201905092915050565b7f4d7573742062652063616c6c65642066726f6d2074686520656c656374696f6e60008201527f206f7267616e697a657220636f6e747261637400000000000000000000000000602082015250565b6000610e48603383610ddb565b9150610e5382610dec565b604082019050919050565b60006020820190508181036000830152610e7781610e3b565b9050919050565b7f566f74657220616c726561647920766f74656400000000000000000000000000600082015250565b6000610eb4601383610ddb565b9150610ebf82610e7e565b602082019050919050565b60006020820190508181036000830152610ee381610ea7565b9050919050565b7f4e487b7100000000000000000000000000000000000000000000000000000000600052601160045260246000fd5b6000610f2482610856565b91507fffffffffffffffffffffffffffffffffffffffffffffffffffffffffffffffff821415610f5757610f56610eea565b5b600182019050919050565b6000610f6d82610856565b9150610f7883610856565b9250827fffffffffffffffffffffffffffffffffffffffffffffffffffffffffffffffff03821115610fad57610fac610eea565b5b828201905092915050565b7f4e487b7100000000000000000000000000000000000000000000000000000000600052603260045260246000fd5b7f416c726561647920496e697469616c697a656400000000000000000000000000600082015250565b600061101d601383610ddb565b915061102882610fe7565b602082019050919050565b6000602082019050818103600083015261104c81611010565b905091905056fea26469706673582212209cb485e085c8fe7482e6db23c278322bbdab554ba19491e003120854a78ee24364736f6c634300080a0033608060405234801561001057600080fd5b50610d6d806100206000396000f3fe608060405234801561001057600080fd5b50600436106100885760003560e01c8063afa524081161005b578063afa5240814610115578063c4d66de814610133578063de2e19a01461014f578063e844d0971461017f57610088565b806306a49fce1461008d57806330a56347146100ab578063521b0dcc146100c9578063a1818ac4146100f9575b600080fd5b61009561019b565b6040516100a291906106d3565b60405180910390f35b6100b36101f3565b6040516100c09190610704565b60405180910390f35b6100e360048036038101906100de9190610791565b6101ff565b6040516100f091906107d9565b60405180910390f35b610113600480360381019061010e9190610979565b610255565b005b61011d610411565b60405161012a9190610b2d565b60405180910390f35b61014d60048036038101906101489190610791565b6104b0565b005b61016960048036038101906101649190610b4f565b610565565b6040516101769190610704565b60405180910390f35b61019960048036038101906101949190610b8f565b610575565b005b606060008054806020026020016040519081016040528092919081815260200182805480156101e957602002820191906000526020600020905b8154815260200190600101908083116101d5575b5050505050905090565b60008080549050905090565b6000600160008373ffffffffffffffffffffffffffffffffffffffff1673ffffffffffffffffffffffffffffffffffffffff16815260200190815260200160002060009054906101000a900460ff169050919050565b600260009054906101000a900473ffffffffffffffffffffffffffffffffffffffff1673ffffffffffffffffffffffffffffffffffffffff163373ffffffffffffffffffffffffffffffffffffffff16146102e5576040517f08c379a00000000000000000000000000000000000000000000000000000000081526004016102dc90610c3f565b60405180910390fd5b60001515600160008673ffffffffffffffffffffffffffffffffffffffff1673ffffffffffffffffffffffffffffffffffffffff16815260200190815260200160002060009054906101000a900460ff16151514610378576040517f08c379a000000000000000000000000000000000000000000000000000000000815260040161036f90610cab565b60405180910390fd5b6003819080600181540180825580915050600190039060005260206000200160009091909190915090805190602001906103b39291906105a1565b5060018060008673ffffffffffffffffffffffffffffffffffffffff1673ffffffffffffffffffffffffffffffffffffffff16815260200190815260200160002060006101000a81548160ff02191690831515021790555050505050565b60606003805480602002602001604051908101604052809291908181526020016000905b828210156104a75783829060005260206000200180548060200260200160405190810160405280929190818152602001828054801561049357602002820191906000526020600020905b81548152602001906001019080831161047f575b505050505081526020019060010190610435565b50505050905090565b60001515600260149054906101000a900460ff16151514610506576040517f08c379a00000000000000000000000000000000000000000000000000000000081526004016104fd90610d17565b60405180910390fd5b80600260006101000a81548173ffffffffffffffffffffffffffffffffffffffff021916908373ffffffffffffffffffffffffffffffffffffffff1602179055506001600260146101000a81548160ff02191690831515021790555050565b6000600191506001905092915050565b600081908060018154018082558091505060019003906000526020600020016000909190919091505550565b8280548282559060005260206000209081019282156105dd579160200282015b828111156105dc5782518255916020019190600101906105c1565b5b5090506105ea91906105ee565b5090565b5b808211156106075760008160009055506001016105ef565b5090565b600081519050919050565b600082825260208201905092915050565b6000819050602082019050919050565b6000819050919050565b61064a81610637565b82525050565b600061065c8383610641565b60208301905092915050565b6000602082019050919050565b60006106808261060b565b61068a8185610616565b935061069583610627565b8060005b838110156106c65781516106ad8882610650565b97506106b883610668565b925050600181019050610699565b5085935050505092915050565b600060208201905081810360008301526106ed8184610675565b905092915050565b6106fe81610637565b82525050565b600060208201905061071960008301846106f5565b92915050565b6000604051905090565b600080fd5b600080fd5b600073ffffffffffffffffffffffffffffffffffffffff82169050919050565b600061075e82610733565b9050919050565b61076e81610753565b811461077957600080fd5b50565b60008135905061078b81610765565b92915050565b6000602082840312156107a7576107a6610729565b5b60006107b58482850161077c565b91505092915050565b60008115159050919050565b6107d3816107be565b82525050565b60006020820190506107ee60008301846107ca565b92915050565b6107fd81610637565b811461080857600080fd5b50565b60008135905061081a816107f4565b92915050565b600080fd5b6000601f19601f8301169050919050565b7f4e487b7100000000000000000000000000000000000000000000000000000000600052604160045260246000fd5b61086e82610825565b810181811067ffffffffffffffff8211171561088d5761088c610836565b5b80604052505050565b60006108a061071f565b90506108ac8282610865565b919050565b600067ffffffffffffffff8211156108cc576108cb610836565b5b602082029050602081019050919050565b600080fd5b60006108f56108f0846108b1565b610896565b90508083825260208201905060208402830185811115610918576109176108dd565b5b835b81811015610941578061092d888261080b565b84526020840193505060208101905061091a565b5050509392505050565b600082601f8301126109605761095f610820565b5b81356109708482602086016108e2565b91505092915050565b6000806000806080858703121561099357610992610729565b5b60006109a18782880161077c565b94505060206109b28782880161080b565b93505060406109c38782880161080b565b925050606085013567ffffffffffffffff8111156109e4576109e361072e565b5b6109f08782880161094b565b91505092959194509250565b600081519050919050565b600082825260208201905092915050565b6000819050602082019050919050565b600082825260208201905092915050565b6000610a448261060b565b610a4e8185610a28565b9350610a5983610627565b8060005b83811015610a8a578151610a718882610650565b9750610a7c83610668565b925050600181019050610a5d565b5085935050505092915050565b6000610aa38383610a39565b905092915050565b6000602082019050919050565b6000610ac3826109fc565b610acd8185610a07565b935083602082028501610adf85610a18565b8060005b85811015610b1b5784840389528151610afc8582610a97565b9450610b0783610aab565b925060208a01995050600181019050610ae3565b50829750879550505050505092915050565b60006020820190508181036000830152610b478184610ab8565b905092915050565b60008060408385031215610b6657610b65610729565b5b6000610b748582860161080b565b9250506020610b858582860161080b565b9150509250929050565b600060208284031215610ba557610ba4610729565b5b6000610bb38482850161080b565b91505092915050565b600082825260208201905092915050565b7f4d7573742062652063616c6c65642066726f6d2074686520656c656374696f6e60008201527f206f7267616e697a657220636f6e747261637400000000000000000000000000602082015250565b6000610c29603383610bbc565b9150610c3482610bcd565b604082019050919050565b60006020820190508181036000830152610c5881610c1c565b9050919050565b7f566f74657220616c726561647920766f74656400000000000000000000000000600082015250565b6000610c95601383610bbc565b9150610ca082610c5f565b602082019050919050565b60006020820190508181036000830152610cc481610c88565b9050919050565b7f416c726561647920496e697469616c697a656400000000000000000000000000600082015250565b6000610d01601383610bbc565b9150610d0c82610ccb565b602082019050919050565b60006020820190508181036000830152610d3081610cf4565b905091905056fea26469706673582212206194c4c4a0cc55169c7ba8ebeb92e4725bcd90737f1183615f6be8748d57563a64736f6c634300080a0033608060405234801561001057600080fd5b50610fbb806100206000396000f3fe608060405234801561001057600080fd5b50600436106100885760003560e01c8063afa524081161005b578063afa5240814610115578063c4d66de814610133578063de2e19a01461014f578063e844d0971461017f57610088565b806306a49fce1461008d57806330a56347146100ab578063521b0dcc146100c9578063a1818ac4146100f9575b600080fd5b61009561019b565b6040516100a29190610824565b60405180910390f35b6100b36101f3565b6040516100c09190610855565b60405180910390f35b6100e360048036038101906100de91906108e2565b6101ff565b6040516100f0919061092a565b60405180910390f35b610113600480360381019061010e9190610aca565b610255565b005b61011d610566565b60405161012a9190610c7e565b60405180910390f35b61014d600480360381019061014891906108e2565b610605565b005b61016960048036038101906101649190610ca0565b6106ba565b6040516101769190610855565b60405180910390f35b61019960048036038101906101949190610ce0565b6106c6565b005b606060008054806020026020016040519081016040528092919081815260200182805480156101e957602002820191906000526020600020905b8154815260200190600101908083116101d5575b5050505050905090565b60008080549050905090565b6000600160008373ffffffffffffffffffffffffffffffffffffffff1673ffffffffffffffffffffffffffffffffffffffff16815260200190815260200160002060009054906101000a900460ff169050919050565b600260009054906101000a900473ffffffffffffffffffffffffffffffffffffffff1673ffffffffffffffffffffffffffffffffffffffff163373ffffffffffffffffffffffffffffffffffffffff16146102e5576040517f08c379a00000000000000000000000000000000000000000000000000000000081526004016102dc90610d90565b60405180910390fd5b60001515600160008673ffffffffffffffffffffffffffffffffffffffff1673ffffffffffffffffffffffffffffffffffffffff16815260200190815260200160002060009054906101000a900460ff16151514610378576040517f08c379a000000000000000000000000000000000000000000000000000000000815260040161036f90610dfc565b60405180910390fd5b600081519050600060038054905014156104365760005b818110156104345760008267ffffffffffffffff8111156103b3576103b2610987565b5b6040519080825280602002602001820160405280156103e15781602001602082028036833780820191505090505b50905060038190806001815401808255809150506001900390600052602060002001600090919091909150908051906020019061041f9291906106f2565b5050808061042c90610e4b565b91505061038f565b505b60005b818110156105075760006001826104509190610e94565b90505b828110156104f35784600385848151811061047157610470610eea565b5b60200260200101518154811061048a57610489610eea565b5b906000526020600020018583815181106104a7576104a6610eea565b5b6020026020010151815481106104c0576104bf610eea565b5b9060005260206000200160008282546104d99190610e94565b9250508190555080806104eb90610e4b565b915050610453565b5080806104ff90610e4b565b915050610439565b5060018060008773ffffffffffffffffffffffffffffffffffffffff1673ffffffffffffffffffffffffffffffffffffffff16815260200190815260200160002060006101000a81548160ff0219169083151502179055505050505050565b60606003805480602002602001604051908101604052809291908181526020016000905b828210156105fc578382906000526020600020018054806020026020016040519081016040528092919081815260200182805480156105e857602002820191906000526020600020905b8154815260200190600101908083116105d4575b50505050508152602001906001019061058a565b50505050905090565b60001515600260149054906101000a900460ff1615151461065b576040517f08c379a000000000000000000000000000000000000000000000000000000000815260040161065290610f65565b60405180910390fd5b80600260006101000a81548173ffffffffffffffffffffffffffffffffffffffff021916908373ffffffffffffffffffffffffffffffffffffffff1602179055506001600260146101000a81548160ff02191690831515021790555050565b60006001905092915050565b600081908060018154018082558091505060019003906000526020600020016000909190919091505550565b82805482825590600052602060002090810192821561072e579160200282015b8281111561072d578251825591602001919060010190610712565b5b50905061073b919061073f565b5090565b5b80821115610758576000816000905550600101610740565b5090565b600081519050919050565b600082825260208201905092915050565b6000819050602082019050919050565b6000819050919050565b61079b81610788565b82525050565b60006107ad8383610792565b60208301905092915050565b6000602082019050919050565b60006107d18261075c565b6107db8185610767565b93506107e683610778565b8060005b838110156108175781516107fe88826107a1565b9750610809836107b9565b9250506001810190506107ea565b5085935050505092915050565b6000602082019050818103600083015261083e81846107c6565b905092915050565b61084f81610788565b82525050565b600060208201905061086a6000830184610846565b92915050565b6000604051905090565b600080fd5b600080fd5b600073ffffffffffffffffffffffffffffffffffffffff82169050919050565b60006108af82610884565b9050919050565b6108bf816108a4565b81146108ca57600080fd5b50565b6000813590506108dc816108b6565b92915050565b6000602082840312156108f8576108f761087a565b5b6000610906848285016108cd565b91505092915050565b60008115159050919050565b6109248161090f565b82525050565b600060208201905061093f600083018461091b565b92915050565b61094e81610788565b811461095957600080fd5b50565b60008135905061096b81610945565b92915050565b600080fd5b6000601f19601f8301169050919050565b7f4e487b7100000000000000000000000000000000000000000000000000000000600052604160045260246000fd5b6109bf82610976565b810181811067ffffffffffffffff821117156109de576109dd610987565b5b80604052505050565b60006109f1610870565b90506109fd82826109b6565b919050565b600067ffffffffffffffff821115610a1d57610a1c610987565b5b602082029050602081019050919050565b600080fd5b6000610a46610a4184610a02565b6109e7565b90508083825260208201905060208402830185811115610a6957610a68610a2e565b5b835b81811015610a925780610a7e888261095c565b845260208401935050602081019050610a6b565b5050509392505050565b600082601f830112610ab157610ab0610971565b5b8135610ac1848260208601610a33565b91505092915050565b60008060008060808587031215610ae457610ae361087a565b5b6000610af2878288016108cd565b9450506020610b038782880161095c565b9350506040610b148782880161095c565b925050606085013567ffffffffffffffff811115610b3557610b3461087f565b5b610b4187828801610a9c565b91505092959194509250565b600081519050919050565b600082825260208201905092915050565b6000819050602082019050919050565b600082825260208201905092915050565b6000610b958261075c565b610b9f8185610b79565b9350610baa83610778565b8060005b83811015610bdb578151610bc288826107a1565b9750610bcd836107b9565b925050600181019050610bae565b5085935050505092915050565b6000610bf48383610b8a565b905092915050565b6000602082019050919050565b6000610c1482610b4d565b610c1e8185610b58565b935083602082028501610c3085610b69565b8060005b85811015610c6c5784840389528151610c4d8582610be8565b9450610c5883610bfc565b925060208a01995050600181019050610c34565b50829750879550505050505092915050565b60006020820190508181036000830152610c988184610c09565b905092915050565b60008060408385031215610cb757610cb661087a565b5b6000610cc58582860161095c565b9250506020610cd68582860161095c565b9150509250929050565b600060208284031215610cf657610cf561087a565b5b6000610d048482850161095c565b91505092915050565b600082825260208201905092915050565b7f4d7573742062652063616c6c65642066726f6d2074686520656c656374696f6e60008201527f206f7267616e697a657220636f6e747261637400000000000000000000000000602082015250565b6000610d7a603383610d0d565b9150610d8582610d1e565b604082019050919050565b60006020820190508181036000830152610da981610d6d565b9050919050565b7f566f74657220616c726561647920766f74656400000000000000000000000000600082015250565b6000610de6601383610d0d565b9150610df182610db0565b602082019050919050565b60006020820190508181036000830152610e1581610dd9565b9050919050565b7f4e487b7100000000000000000000000000000000000000000000000000000000600052601160045260246000fd5b6000610e5682610788565b91507fffffffffffffffffffffffffffffffffffffffffffffffffffffffffffffffff821415610e8957610e88610e1c565b5b600182019050919050565b6000610e9f82610788565b9150610eaa83610788565b9250827fffffffffffffffffffffffffffffffffffffffffffffffffffffffffffffffff03821115610edf57610ede610e1c565b5b828201905092915050565b7f4e487b7100000000000000000000000000000000000000000000000000000000600052603260045260246000fd5b7f416c726561647920496e697469616c697a656400000000000000000000000000600082015250565b6000610f4f601383610d0d565b9150610f5a82610f19565b602082019050919050565b60006020820190508181036000830152610f7e81610f42565b905091905056fea26469706673582212201ed0c9d8a939b447d14732e25414b3d78e55820e7749ea60e203b6cf9f9fd8be64736f6c634300080a003360a06040523480156200001157600080fd5b506040516200126538038062001265833981810160405281019062000037919062000086565b806080818152505050620000b8565b600080fd5b6000819050919050565b62000060816200004b565b81146200006c57600080fd5b50565b600081519050620000808162000055565b92915050565b6000602082840312156200009f576200009e62000046565b5b6000620000af848285016200006f565b91505092915050565b60805161118a620000db600039600081816103de0152610616015261118a6000f3fe608060405234801561001057600080fd5b50600436106100935760003560e01c8063afa5240811610066578063afa5240814610120578063c4d66de81461013e578063cb2ef6f71461015a578063de2e19a014610178578063e844d097146101a857610093565b806306a49fce1461009857806330a56347146100b6578063521b0dcc146100d4578063a1818ac414610104575b600080fd5b6100a06101c4565b6040516100ad919061082d565b60405180910390f35b6100be61021c565b6040516100cb919061085e565b60405180910390f35b6100ee60048036038101906100e991906108eb565b610228565b6040516100fb9190610933565b60405180910390f35b61011e60048036038101906101199190610ad3565b61027e565b005b61012861055a565b6040516101359190610c87565b60405180910390f35b610158600480360381019061015391906108eb565b61055f565b005b610162610614565b60405161016f919061085e565b60405180910390f35b610192600480360381019061018d9190610ca9565b610638565b60405161019f919061085e565b60405180910390f35b6101c260048036038101906101bd9190610ce9565b610656565b005b6060600080548060200260200160405190810160405280929190818152602001828054801561021257602002820191906000526020600020905b8154815260200190600101908083116101fe575b5050505050905090565b60008080549050905090565b6000600160008373ffffffffffffffffffffffffffffffffffffffff1673ffffffffffffffffffffffffffffffffffffffff16815260200190815260200160002060009054906101000a900460ff169050919050565b600260009054906101000a900473ffffffffffffffffffffffffffffffffffffffff1673ffffffffffffffffffffffffffffffffffffffff163373ffffffffffffffffffffffffffffffffffffffff161461030e576040517f08c379a000000000000000000000000000000000000000000000000000000000815260040161030590610d99565b60405180910390fd5b600160008573ffffffffffffffffffffffffffffffffffffffff1673ffffffffffffffffffffffffffffffffffffffff16815260200190815260200160002060009054906101000a900460ff1615610392576040517f7c9a1cf900000000000000000000000000000000000000000000000000000000815260040160405180910390fd5b6000805490508151146103da576040517f08c379a00000000000000000000000000000000000000000000000000000000081526004016103d190610e05565b60405180910390fd5b60007f000000000000000000000000000000000000000000000000000000000000000014156104505761040c81610682565b61044b576040517f08c379a000000000000000000000000000000000000000000000000000000000815260040161044290610e71565b60405180910390fd5b610499565b6104598161070a565b610498576040517f08c379a000000000000000000000000000000000000000000000000000000000815260040161048f90610edd565b60405180910390fd5b5b60005b81518110156104fc578181815181106104b8576104b7610efd565b5b60200260200101516003600083815260200190815260200160002060008282546104e29190610f5b565b9250508190555080806104f490610fb1565b91505061049c565b5060018060008673ffffffffffffffffffffffffffffffffffffffff1673ffffffffffffffffffffffffffffffffffffffff16815260200190815260200160002060006101000a81548160ff02191690831515021790555050505050565b606090565b60001515600260149054906101000a900460ff161515146105b5576040517f08c379a00000000000000000000000000000000000000000000000000000000081526004016105ac90611046565b60405180910390fd5b80600260006101000a81548173ffffffffffffffffffffffffffffffffffffffff021916908373ffffffffffffffffffffffffffffffffffffffff1602179055506001600260146101000a81548160ff02191690831515021790555050565b7f000000000000000000000000000000000000000000000000000000000000000081565b60006003600084815260200190815260200160002054905092915050565b600081908060018154018082558091505060019003906000526020600020016000909190919091505550565b60008060008054905090506000600260018361069e9190610f5b565b836106a99190611066565b6106b391906110ef565b905060005b84518110156106fc578481815181106106d4576106d3610efd565b5b6020026020010151826106e79190611120565b915080806106f490610fb1565b9150506106b8565b506000811492505050919050565b6000806064905060005b8351811015610758578381815181106107305761072f610efd565b5b6020026020010151826107439190611120565b9150808061075090610fb1565b915050610714565b5060008114915050919050565b600081519050919050565b600082825260208201905092915050565b6000819050602082019050919050565b6000819050919050565b6107a481610791565b82525050565b60006107b6838361079b565b60208301905092915050565b6000602082019050919050565b60006107da82610765565b6107e48185610770565b93506107ef83610781565b8060005b8381101561082057815161080788826107aa565b9750610812836107c2565b9250506001810190506107f3565b5085935050505092915050565b6000602082019050818103600083015261084781846107cf565b905092915050565b61085881610791565b82525050565b6000602082019050610873600083018461084f565b92915050565b6000604051905090565b600080fd5b600080fd5b600073ffffffffffffffffffffffffffffffffffffffff82169050919050565b60006108b88261088d565b9050919050565b6108c8816108ad565b81146108d357600080fd5b50565b6000813590506108e5816108bf565b92915050565b60006020828403121561090157610900610883565b5b600061090f848285016108d6565b91505092915050565b60008115159050919050565b61092d81610918565b82525050565b60006020820190506109486000830184610924565b92915050565b61095781610791565b811461096257600080fd5b50565b6000813590506109748161094e565b92915050565b600080fd5b6000601f19601f8301169050919050565b7f4e487b7100000000000000000000000000000000000000000000000000000000600052604160045260246000fd5b6109c88261097f565b810181811067ffffffffffffffff821117156109e7576109e6610990565b5b80604052505050565b60006109fa610879565b9050610a0682826109bf565b919050565b600067ffffffffffffffff821115610a2657610a25610990565b5b602082029050602081019050919050565b600080fd5b6000610a4f610a4a84610a0b565b6109f0565b90508083825260208201905060208402830185811115610a7257610a71610a37565b5b835b81811015610a9b5780610a878882610965565b845260208401935050602081019050610a74565b5050509392505050565b600082601f830112610aba57610ab961097a565b5b8135610aca848260208601610a3c565b91505092915050565b60008060008060808587031215610aed57610aec610883565b5b6000610afb878288016108d6565b9450506020610b0c87828801610965565b9350506040610b1d87828801610965565b925050606085013567ffffffffffffffff811115610b3e57610b3d610888565b5b610b4a87828801610aa5565b91505092959194509250565b600081519050919050565b600082825260208201905092915050565b6000819050602082019050919050565b600082825260208201905092915050565b6000610b9e82610765565b610ba88185610b82565b9350610bb383610781565b8060005b83811015610be4578151610bcb88826107aa565b9750610bd6836107c2565b925050600181019050610bb7565b5085935050505092915050565b6000610bfd8383610b93565b905092915050565b6000602082019050919050565b6000610c1d82610b56565b610c278185610b61565b935083602082028501610c3985610b72565b8060005b85811015610c755784840389528151610c568582610bf1565b9450610c6183610c05565b925060208a01995050600181019050610c3d565b50829750879550505050505092915050565b60006020820190508181036000830152610ca18184610c12565b905092915050565b60008060408385031215610cc057610cbf610883565b5b6000610cce85828601610965565b9250506020610cdf85828601610965565b9150509250929050565b600060208284031215610cff57610cfe610883565b5b6000610d0d84828501610965565b91505092915050565b600082825260208201905092915050565b7f4d7573742062652063616c6c65642066726f6d2074686520656c656374696f6e60008201527f206f7267616e697a657220636f6e747261637400000000000000000000000000602082015250565b6000610d83603383610d16565b9150610d8e82610d27565b604082019050919050565b60006020820190508181036000830152610db281610d76565b9050919050565b7f566f74657320446f6e74206d61746368207468652043616e6469646174657300600082015250565b6000610def601f83610d16565b9150610dfa82610db9565b602082019050919050565b60006020820190508181036000830152610e1e81610de2565b9050919050565b7f496e636f7272656374204372656469747320476976656e000000000000000000600082015250565b6000610e5b601783610d16565b9150610e6682610e25565b602082019050919050565b60006020820190508181036000830152610e8a81610e4e565b9050919050565b7f496e636f7272656374204372656469747320676976656e000000000000000000600082015250565b6000610ec7601783610d16565b9150610ed282610e91565b602082019050919050565b60006020820190508181036000830152610ef681610eba565b9050919050565b7f4e487b7100000000000000000000000000000000000000000000000000000000600052603260045260246000fd5b7f4e487b7100000000000000000000000000000000000000000000000000000000600052601160045260246000fd5b6000610f6682610791565b9150610f7183610791565b9250827fffffffffffffffffffffffffffffffffffffffffffffffffffffffffffffffff03821115610fa657610fa5610f2c565b5b828201905092915050565b6000610fbc82610791565b91507fffffffffffffffffffffffffffffffffffffffffffffffffffffffffffffffff821415610fef57610fee610f2c565b5b600182019050919050565b7f416c726561647920496e697469616c697a656400000000000000000000000000600082015250565b6000611030601383610d16565b915061103b82610ffa565b602082019050919050565b6000602082019050818103600083015261105f81611023565b9050919050565b600061107182610791565b915061107c83610791565b9250817fffffffffffffffffffffffffffffffffffffffffffffffffffffffffffffffff04831182151516156110b5576110b4610f2c565b5b828202905092915050565b7f4e487b7100000000000000000000000000000000000000000000000000000000600052601260045260246000fd5b60006110fa82610791565b915061110583610791565b925082611115576111146110c0565b5b828204905092915050565b600061112b82610791565b915061113683610791565b92508282101561114957611148610f2c565b5b82820390509291505056fea26469706673582212200354be4235a2e04791b6bba29b9caf05dadf53ef922bdb7fa9bfc3fcbb081da664736f6c634300080a0033608060405234801561001057600080fd5b50610d3e806100206000396000f3fe608060405234801561001057600080fd5b50600436106100935760003560e01c8063a1818ac411610066578063a1818ac414610134578063afa5240814610150578063c4d66de81461016e578063de2e19a01461018a578063e844d097146101ba57610093565b806306a49fce1461009857806330a56347146100b6578063521b0dcc146100d45780635df8133014610104575b600080fd5b6100a06101d6565b6040516100ad919061061f565b60405180910390f35b6100be61022e565b6040516100cb9190610650565b60405180910390f35b6100ee60048036038101906100e991906106dd565b61023a565b6040516100fb9190610725565b60405180910390f35b61011e6004803603810190610119919061076c565b610290565b60405161012b9190610650565b60405180910390f35b61014e600480360381019061014991906108f2565b6102a8565b005b610158610453565b6040516101659190610aa6565b60405180910390f35b610188600480360381019061018391906106dd565b610458565b005b6101a4600480360381019061019f9190610ac8565b61050d565b6040516101b19190610650565b60405180910390f35b6101d460048036038101906101cf919061076c565b61052b565b005b6060600080548060200260200160405190810160405280929190818152602001828054801561022457602002820191906000526020600020905b815481526020019060010190808311610210575b5050505050905090565b60008080549050905090565b6000600160008373ffffffffffffffffffffffffffffffffffffffff1673ffffffffffffffffffffffffffffffffffffffff16815260200190815260200160002060009054906101000a900460ff169050919050565b60036020528060005260406000206000915090505481565b600260009054906101000a900473ffffffffffffffffffffffffffffffffffffffff1673ffffffffffffffffffffffffffffffffffffffff163373ffffffffffffffffffffffffffffffffffffffff1614610338576040517f08c379a000000000000000000000000000000000000000000000000000000000815260040161032f90610b8b565b60405180910390fd5b60001515600160008673ffffffffffffffffffffffffffffffffffffffff1673ffffffffffffffffffffffffffffffffffffffff16815260200190815260200160002060009054906101000a900460ff161515146103cb576040517f08c379a00000000000000000000000000000000000000000000000000000000081526004016103c290610bf7565b60405180910390fd5b60016003600085815260200190815260200160002060008282546103ef9190610c46565b9250508190555060018060008673ffffffffffffffffffffffffffffffffffffffff1673ffffffffffffffffffffffffffffffffffffffff16815260200190815260200160002060006101000a81548160ff02191690831515021790555050505050565b606090565b60001515600260149054906101000a900460ff161515146104ae576040517f08c379a00000000000000000000000000000000000000000000000000000000081526004016104a590610ce8565b60405180910390fd5b80600260006101000a81548173ffffffffffffffffffffffffffffffffffffffff021916908373ffffffffffffffffffffffffffffffffffffffff1602179055506001600260146101000a81548160ff02191690831515021790555050565b60006003600084815260200190815260200160002054905092915050565b600081908060018154018082558091505060019003906000526020600020016000909190919091505550565b600081519050919050565b600082825260208201905092915050565b6000819050602082019050919050565b6000819050919050565b61059681610583565b82525050565b60006105a8838361058d565b60208301905092915050565b6000602082019050919050565b60006105cc82610557565b6105d68185610562565b93506105e183610573565b8060005b838110156106125781516105f9888261059c565b9750610604836105b4565b9250506001810190506105e5565b5085935050505092915050565b6000602082019050818103600083015261063981846105c1565b905092915050565b61064a81610583565b82525050565b60006020820190506106656000830184610641565b92915050565b6000604051905090565b600080fd5b600080fd5b600073ffffffffffffffffffffffffffffffffffffffff82169050919050565b60006106aa8261067f565b9050919050565b6106ba8161069f565b81146106c557600080fd5b50565b6000813590506106d7816106b1565b92915050565b6000602082840312156106f3576106f2610675565b5b6000610701848285016106c8565b91505092915050565b60008115159050919050565b61071f8161070a565b82525050565b600060208201905061073a6000830184610716565b92915050565b61074981610583565b811461075457600080fd5b50565b60008135905061076681610740565b92915050565b60006020828403121561078257610781610675565b5b600061079084828501610757565b91505092915050565b600080fd5b6000601f19601f8301169050919050565b7f4e487b7100000000000000000000000000000000000000000000000000000000600052604160045260246000fd5b6107e78261079e565b810181811067ffffffffffffffff82111715610806576108056107af565b5b80604052505050565b600061081961066b565b905061082582826107de565b919050565b600067ffffffffffffffff821115610845576108446107af565b5b602082029050602081019050919050565b600080fd5b600061086e6108698461082a565b61080f565b9050808382526020820190506020840283018581111561089157610890610856565b5b835b818110156108ba57806108a68882610757565b845260208401935050602081019050610893565b5050509392505050565b600082601f8301126108d9576108d8610799565b5b81356108e984826020860161085b565b91505092915050565b6000806000806080858703121561090c5761090b610675565b5b600061091a878288016106c8565b945050602061092b87828801610757565b935050604061093c87828801610757565b925050606085013567ffffffffffffffff81111561095d5761095c61067a565b5b610969878288016108c4565b91505092959194509250565b600081519050919050565b600082825260208201905092915050565b6000819050602082019050919050565b600082825260208201905092915050565b60006109bd82610557565b6109c781856109a1565b93506109d283610573565b8060005b83811015610a035781516109ea888261059c565b97506109f5836105b4565b9250506001810190506109d6565b5085935050505092915050565b6000610a1c83836109b2565b905092915050565b6000602082019050919050565b6000610a3c82610975565b610a468185610980565b935083602082028501610a5885610991565b8060005b85811015610a945784840389528151610a758582610a10565b9450610a8083610a24565b925060208a01995050600181019050610a5c565b50829750879550505050505092915050565b60006020820190508181036000830152610ac08184610a31565b905092915050565b60008060408385031215610adf57610ade610675565b5b6000610aed85828601610757565b9250506020610afe85828601610757565b9150509250929050565b600082825260208201905092915050565b7f4d7573742062652063616c6c65642066726f6d2074686520656c656374696f6e60008201527f206f7267616e697a657220636f6e747261637400000000000000000000000000602082015250565b6000610b75603383610b08565b9150610b8082610b19565b604082019050919050565b60006020820190508181036000830152610ba481610b68565b9050919050565b7f566f74657220616c726561647920766f74656400000000000000000000000000600082015250565b6000610be1601383610b08565b9150610bec82610bab565b602082019050919050565b60006020820190508181036000830152610c1081610bd4565b9050919050565b7f4e487b7100000000000000000000000000000000000000000000000000000000600052601160045260246000fd5b6000610c5182610583565b9150610c5c83610583565b9250827fffffffffffffffffffffffffffffffffffffffffffffffffffffffffffffffff03821115610c9157610c90610c17565b5b828201905092915050565b7f416c726561647920496e697469616c697a656400000000000000000000000000600082015250565b6000610cd2601383610b08565b9150610cdd82610c9c565b602082019050919050565b60006020820190508181036000830152610d0181610cc5565b905091905056fea26469706673582212202a9c1ef8d47e8f8ed62e854ca8002e02262cc50edc2c2b72f873d7d741c892b064736f6c634300080a0033a2646970667358221220f697db3532a6cd731db99e15b27196d8a0153c323bbac2dddf7c2f6ffd176fd464736f6c634300080a0033",
  "linkReferences": {},
  "deployedLinkReferences": {}
}