{
  "_format": "hh-sol-artifact-1",
  "contractName": "SchulzeBallot",
  "sourceName": "contracts/facets/votingApp/ballot/Schulze.sol",
  "abi": [
    {
      "inputs": [
        {
          "internalType": "uint256",
          "name": "_candidate",
          "type": "uint256"
        }
      ],
      "name": "addCandidate",
      "outputs": [],
      "stateMutability": "nonpayable",
      "type": "function"
    },
    {
      "inputs": [],
      "name": "getCandidateCount",
      "outputs": [
        {
          "internalType": "uint256",
          "name": "",
          "type": "uint256"
        }
      ],
      "stateMutability": "view",
      "type": "function"
    },
    {
      "inputs": [],
      "name": "getCandidates",
      "outputs": [
        {
          "internalType": "uint256[]",
          "name": "",
          "type": "uint256[]"
        }
      ],
      "stateMutability": "view",
      "type": "function"
    },
    {
      "inputs": [],
      "name": "getVoteArr",
      "outputs": [
        {
          "internalType": "uint256[][]",
          "name": "temp",
          "type": "uint256[][]"
        }
      ],
      "stateMutability": "view",
      "type": "function"
    },
    {
      "inputs": [
        {
          "internalType": "uint256",
          "name": "_candidate",
          "type": "uint256"
        },
        {
          "internalType": "uint256",
          "name": "_preference",
          "type": "uint256"
        }
      ],
      "name": "getVoteCount",
      "outputs": [
        {
          "internalType": "uint256",
          "name": "",
          "type": "uint256"
        }
      ],
      "stateMutability": "view",
      "type": "function"
    },
    {
      "inputs": [
        {
          "internalType": "address",
          "name": "_voter",
          "type": "address"
        }
      ],
      "name": "getVoteStatus",
      "outputs": [
        {
          "internalType": "bool",
          "name": "",
          "type": "bool"
        }
      ],
      "stateMutability": "view",
      "type": "function"
    },
    {
      "inputs": [
        {
          "internalType": "address",
          "name": "_contractOwner",
          "type": "address"
        }
      ],
      "name": "initialize",
      "outputs": [],
      "stateMutability": "nonpayable",
      "type": "function"
    },
    {
      "inputs": [
        {
          "internalType": "address",
          "name": "_voter",
          "type": "address"
        },
        {
          "internalType": "uint256",
          "name": "_candidate",
          "type": "uint256"
        },
        {
          "internalType": "uint256",
          "name": "_weight",
          "type": "uint256"
        },
        {
          "internalType": "uint256[]",
          "name": "prefernceVote",
          "type": "uint256[]"
        }
      ],
      "name": "vote",
      "outputs": [],
      "stateMutability": "nonpayable",
      "type": "function"
    }
  ],
  "bytecode": "0x608060405234801561001057600080fd5b50611089806100206000396000f3fe608060405234801561001057600080fd5b50600436106100885760003560e01c8063afa524081161005b578063afa5240814610115578063c4d66de814610133578063de2e19a01461014f578063e844d0971461017f57610088565b806306a49fce1461008d57806330a56347146100ab578063521b0dcc146100c9578063a1818ac4146100f9575b600080fd5b61009561019b565b6040516100a291906108f2565b60405180910390f35b6100b36101f3565b6040516100c09190610923565b60405180910390f35b6100e360048036038101906100de91906109b0565b6101ff565b6040516100f091906109f8565b60405180910390f35b610113600480360381019061010e9190610b98565b610255565b005b61011d6105fa565b60405161012a9190610d4c565b60405180910390f35b61014d600480360381019061014891906109b0565b610699565b005b61016960048036038101906101649190610d6e565b61074e565b6040516101769190610923565b60405180910390f35b61019960048036038101906101949190610dae565b610794565b005b606060008054806020026020016040519081016040528092919081815260200182805480156101e957602002820191906000526020600020905b8154815260200190600101908083116101d5575b5050505050905090565b60008080549050905090565b6000600160008373ffffffffffffffffffffffffffffffffffffffff1673ffffffffffffffffffffffffffffffffffffffff16815260200190815260200160002060009054906101000a900460ff169050919050565b600260009054906101000a900473ffffffffffffffffffffffffffffffffffffffff1673ffffffffffffffffffffffffffffffffffffffff163373ffffffffffffffffffffffffffffffffffffffff16146102e5576040517f08c379a00000000000000000000000000000000000000000000000000000000081526004016102dc90610e5e565b60405180910390fd5b60001515600160008673ffffffffffffffffffffffffffffffffffffffff1673ffffffffffffffffffffffffffffffffffffffff16815260200190815260200160002060009054906101000a900460ff16151514610378576040517f08c379a000000000000000000000000000000000000000000000000000000000815260040161036f90610eca565b60405180910390fd5b600081519050600060038054905014156104305760005b8181101561042e5760038267ffffffffffffffff8111156103b3576103b2610a55565b5b6040519080825280602002602001820160405280156103e15781602001602082028036833780820191505090505b5090806001815401808255809150506001900390600052602060002001600090919091909150908051906020019061041a9291906107c0565b50808061042690610f19565b91505061038f565b505b60005b8181101561059b57600060018261044a9190610f62565b90505b828110156105875783818151811061046857610467610fb8565b5b602002602001015184838151811061048357610482610fb8565b5b602002602001015111156104e657600382815481106104a5576104a4610fb8565b5b9060005260206000200181815481106104c1576104c0610fb8565b5b9060005260206000200160008154809291906104dc90610f19565b9190505550610574565b8381815181106104f9576104f8610fb8565b5b602002602001015184838151811061051457610513610fb8565b5b60200260200101511015610573576003818154811061053657610535610fb8565b5b90600052602060002001828154811061055257610551610fb8565b5b90600052602060002001600081548092919061056d90610f19565b91905055505b5b808061057f90610f19565b91505061044d565b50808061059390610f19565b915050610433565b5060018060008773ffffffffffffffffffffffffffffffffffffffff1673ffffffffffffffffffffffffffffffffffffffff16815260200190815260200160002060006101000a81548160ff0219169083151502179055505050505050565b60606003805480602002602001604051908101604052809291908181526020016000905b828210156106905783829060005260206000200180548060200260200160405190810160405280929190818152602001828054801561067c57602002820191906000526020600020905b815481526020019060010190808311610668575b50505050508152602001906001019061061e565b50505050905090565b60001515600260149054906101000a900460ff161515146106ef576040517f08c379a00000000000000000000000000000000000000000000000000000000081526004016106e690611033565b60405180910390fd5b80600260006101000a81548173ffffffffffffffffffffffffffffffffffffffff021916908373ffffffffffffffffffffffffffffffffffffffff1602179055506001600260146101000a81548160ff02191690831515021790555050565b60006003838154811061076457610763610fb8565b5b9060005260206000200160018154811061078157610780610fb8565b5b9060005260206000200154905092915050565b600081908060018154018082558091505060019003906000526020600020016000909190919091505550565b8280548282559060005260206000209081019282156107fc579160200282015b828111156107fb5782518255916020019190600101906107e0565b5b509050610809919061080d565b5090565b5b8082111561082657600081600090555060010161080e565b5090565b600081519050919050565b600082825260208201905092915050565b6000819050602082019050919050565b6000819050919050565b61086981610856565b82525050565b600061087b8383610860565b60208301905092915050565b6000602082019050919050565b600061089f8261082a565b6108a98185610835565b93506108b483610846565b8060005b838110156108e55781516108cc888261086f565b97506108d783610887565b9250506001810190506108b8565b5085935050505092915050565b6000602082019050818103600083015261090c8184610894565b905092915050565b61091d81610856565b82525050565b60006020820190506109386000830184610914565b92915050565b6000604051905090565b600080fd5b600080fd5b600073ffffffffffffffffffffffffffffffffffffffff82169050919050565b600061097d82610952565b9050919050565b61098d81610972565b811461099857600080fd5b50565b6000813590506109aa81610984565b92915050565b6000602082840312156109c6576109c5610948565b5b60006109d48482850161099b565b91505092915050565b60008115159050919050565b6109f2816109dd565b82525050565b6000602082019050610a0d60008301846109e9565b92915050565b610a1c81610856565b8114610a2757600080fd5b50565b600081359050610a3981610a13565b92915050565b600080fd5b6000601f19601f8301169050919050565b7f4e487b7100000000000000000000000000000000000000000000000000000000600052604160045260246000fd5b610a8d82610a44565b810181811067ffffffffffffffff82111715610aac57610aab610a55565b5b80604052505050565b6000610abf61093e565b9050610acb8282610a84565b919050565b600067ffffffffffffffff821115610aeb57610aea610a55565b5b602082029050602081019050919050565b600080fd5b6000610b14610b0f84610ad0565b610ab5565b90508083825260208201905060208402830185811115610b3757610b36610afc565b5b835b81811015610b605780610b4c8882610a2a565b845260208401935050602081019050610b39565b5050509392505050565b600082601f830112610b7f57610b7e610a3f565b5b8135610b8f848260208601610b01565b91505092915050565b60008060008060808587031215610bb257610bb1610948565b5b6000610bc08782880161099b565b9450506020610bd187828801610a2a565b9350506040610be287828801610a2a565b925050606085013567ffffffffffffffff811115610c0357610c0261094d565b5b610c0f87828801610b6a565b91505092959194509250565b600081519050919050565b600082825260208201905092915050565b6000819050602082019050919050565b600082825260208201905092915050565b6000610c638261082a565b610c6d8185610c47565b9350610c7883610846565b8060005b83811015610ca9578151610c90888261086f565b9750610c9b83610887565b925050600181019050610c7c565b5085935050505092915050565b6000610cc28383610c58565b905092915050565b6000602082019050919050565b6000610ce282610c1b565b610cec8185610c26565b935083602082028501610cfe85610c37565b8060005b85811015610d3a5784840389528151610d1b8582610cb6565b9450610d2683610cca565b925060208a01995050600181019050610d02565b50829750879550505050505092915050565b60006020820190508181036000830152610d668184610cd7565b905092915050565b60008060408385031215610d8557610d84610948565b5b6000610d9385828601610a2a565b9250506020610da485828601610a2a565b9150509250929050565b600060208284031215610dc457610dc3610948565b5b6000610dd284828501610a2a565b91505092915050565b600082825260208201905092915050565b7f4d7573742062652063616c6c65642066726f6d2074686520656c656374696f6e60008201527f206f7267616e697a657220636f6e747261637400000000000000000000000000602082015250565b6000610e48603383610ddb565b9150610e5382610dec565b604082019050919050565b60006020820190508181036000830152610e7781610e3b565b9050919050565b7f566f74657220616c726561647920766f74656400000000000000000000000000600082015250565b6000610eb4601383610ddb565b9150610ebf82610e7e565b602082019050919050565b60006020820190508181036000830152610ee381610ea7565b9050919050565b7f4e487b7100000000000000000000000000000000000000000000000000000000600052601160045260246000fd5b6000610f2482610856565b91507fffffffffffffffffffffffffffffffffffffffffffffffffffffffffffffffff821415610f5757610f56610eea565b5b600182019050919050565b6000610f6d82610856565b9150610f7883610856565b9250827fffffffffffffffffffffffffffffffffffffffffffffffffffffffffffffffff03821115610fad57610fac610eea565b5b828201905092915050565b7f4e487b7100000000000000000000000000000000000000000000000000000000600052603260045260246000fd5b7f416c726561647920496e697469616c697a656400000000000000000000000000600082015250565b600061101d601383610ddb565b915061102882610fe7565b602082019050919050565b6000602082019050818103600083015261104c81611010565b905091905056fea26469706673582212209cb485e085c8fe7482e6db23c278322bbdab554ba19491e003120854a78ee24364736f6c634300080a0033",
  "linkReferences": {},
  "deployedLinkReferences": {}
}