{
  "_format": "hh-sol-artifact-1",
  "contractName": "GeneralBallot",
  "sourceName": "contracts/facets/votingApp/ballot/GeneralBallot.sol",
  "abi": [
    {
      "inputs": [
        {
          "internalType": "uint256",
          "name": "_candidate",
          "type": "uint256"
        }
      ],
      "name": "addCandidate",
      "outputs": [],
      "stateMutability": "nonpayable",
      "type": "function"
    },
    {
      "inputs": [],
      "name": "getCandidateCount",
      "outputs": [
        {
          "internalType": "uint256",
          "name": "",
          "type": "uint256"
        }
      ],
      "stateMutability": "view",
      "type": "function"
    },
    {
      "inputs": [],
      "name": "getCandidates",
      "outputs": [
        {
          "internalType": "uint256[]",
          "name": "",
          "type": "uint256[]"
        }
      ],
      "stateMutability": "view",
      "type": "function"
    },
    {
      "inputs": [],
      "name": "getVoteArr",
      "outputs": [
        {
          "internalType": "uint256[][]",
          "name": "arr",
          "type": "uint256[][]"
        }
      ],
      "stateMutability": "nonpayable",
      "type": "function"
    },
    {
      "inputs": [
        {
          "internalType": "uint256",
          "name": "_candidate",
          "type": "uint256"
        },
        {
          "internalType": "uint256",
          "name": "_weight",
          "type": "uint256"
        }
      ],
      "name": "getVoteCount",
      "outputs": [
        {
          "internalType": "uint256",
          "name": "",
          "type": "uint256"
        }
      ],
      "stateMutability": "view",
      "type": "function"
    },
    {
      "inputs": [
        {
          "internalType": "address",
          "name": "_voter",
          "type": "address"
        }
      ],
      "name": "getVoteStatus",
      "outputs": [
        {
          "internalType": "bool",
          "name": "",
          "type": "bool"
        }
      ],
      "stateMutability": "view",
      "type": "function"
    },
    {
      "inputs": [
        {
          "internalType": "address",
          "name": "_contractOwner",
          "type": "address"
        }
      ],
      "name": "initialize",
      "outputs": [],
      "stateMutability": "nonpayable",
      "type": "function"
    },
    {
      "inputs": [
        {
          "internalType": "address",
          "name": "_voter",
          "type": "address"
        },
        {
          "internalType": "uint256",
          "name": "_candidate",
          "type": "uint256"
        },
        {
          "internalType": "uint256",
          "name": "_weight",
          "type": "uint256"
        },
        {
          "internalType": "uint256[]",
          "name": "voteArr",
          "type": "uint256[]"
        }
      ],
      "name": "vote",
      "outputs": [],
      "stateMutability": "nonpayable",
      "type": "function"
    },
    {
      "inputs": [
        {
          "internalType": "uint256",
          "name": "",
          "type": "uint256"
        }
      ],
      "name": "votes",
      "outputs": [
        {
          "internalType": "uint256",
          "name": "",
          "type": "uint256"
        }
      ],
      "stateMutability": "view",
      "type": "function"
    }
  ],
  "bytecode": "0x608060405234801561001057600080fd5b50610d3e806100206000396000f3fe608060405234801561001057600080fd5b50600436106100935760003560e01c8063a1818ac411610066578063a1818ac414610134578063afa5240814610150578063c4d66de81461016e578063de2e19a01461018a578063e844d097146101ba57610093565b806306a49fce1461009857806330a56347146100b6578063521b0dcc146100d45780635df8133014610104575b600080fd5b6100a06101d6565b6040516100ad919061061f565b60405180910390f35b6100be61022e565b6040516100cb9190610650565b60405180910390f35b6100ee60048036038101906100e991906106dd565b61023a565b6040516100fb9190610725565b60405180910390f35b61011e6004803603810190610119919061076c565b610290565b60405161012b9190610650565b60405180910390f35b61014e600480360381019061014991906108f2565b6102a8565b005b610158610453565b6040516101659190610aa6565b60405180910390f35b610188600480360381019061018391906106dd565b610458565b005b6101a4600480360381019061019f9190610ac8565b61050d565b6040516101b19190610650565b60405180910390f35b6101d460048036038101906101cf919061076c565b61052b565b005b6060600080548060200260200160405190810160405280929190818152602001828054801561022457602002820191906000526020600020905b815481526020019060010190808311610210575b5050505050905090565b60008080549050905090565b6000600160008373ffffffffffffffffffffffffffffffffffffffff1673ffffffffffffffffffffffffffffffffffffffff16815260200190815260200160002060009054906101000a900460ff169050919050565b60036020528060005260406000206000915090505481565b600260009054906101000a900473ffffffffffffffffffffffffffffffffffffffff1673ffffffffffffffffffffffffffffffffffffffff163373ffffffffffffffffffffffffffffffffffffffff1614610338576040517f08c379a000000000000000000000000000000000000000000000000000000000815260040161032f90610b8b565b60405180910390fd5b60001515600160008673ffffffffffffffffffffffffffffffffffffffff1673ffffffffffffffffffffffffffffffffffffffff16815260200190815260200160002060009054906101000a900460ff161515146103cb576040517f08c379a00000000000000000000000000000000000000000000000000000000081526004016103c290610bf7565b60405180910390fd5b60016003600085815260200190815260200160002060008282546103ef9190610c46565b9250508190555060018060008673ffffffffffffffffffffffffffffffffffffffff1673ffffffffffffffffffffffffffffffffffffffff16815260200190815260200160002060006101000a81548160ff02191690831515021790555050505050565b606090565b60001515600260149054906101000a900460ff161515146104ae576040517f08c379a00000000000000000000000000000000000000000000000000000000081526004016104a590610ce8565b60405180910390fd5b80600260006101000a81548173ffffffffffffffffffffffffffffffffffffffff021916908373ffffffffffffffffffffffffffffffffffffffff1602179055506001600260146101000a81548160ff02191690831515021790555050565b60006003600084815260200190815260200160002054905092915050565b600081908060018154018082558091505060019003906000526020600020016000909190919091505550565b600081519050919050565b600082825260208201905092915050565b6000819050602082019050919050565b6000819050919050565b61059681610583565b82525050565b60006105a8838361058d565b60208301905092915050565b6000602082019050919050565b60006105cc82610557565b6105d68185610562565b93506105e183610573565b8060005b838110156106125781516105f9888261059c565b9750610604836105b4565b9250506001810190506105e5565b5085935050505092915050565b6000602082019050818103600083015261063981846105c1565b905092915050565b61064a81610583565b82525050565b60006020820190506106656000830184610641565b92915050565b6000604051905090565b600080fd5b600080fd5b600073ffffffffffffffffffffffffffffffffffffffff82169050919050565b60006106aa8261067f565b9050919050565b6106ba8161069f565b81146106c557600080fd5b50565b6000813590506106d7816106b1565b92915050565b6000602082840312156106f3576106f2610675565b5b6000610701848285016106c8565b91505092915050565b60008115159050919050565b61071f8161070a565b82525050565b600060208201905061073a6000830184610716565b92915050565b61074981610583565b811461075457600080fd5b50565b60008135905061076681610740565b92915050565b60006020828403121561078257610781610675565b5b600061079084828501610757565b91505092915050565b600080fd5b6000601f19601f8301169050919050565b7f4e487b7100000000000000000000000000000000000000000000000000000000600052604160045260246000fd5b6107e78261079e565b810181811067ffffffffffffffff82111715610806576108056107af565b5b80604052505050565b600061081961066b565b905061082582826107de565b919050565b600067ffffffffffffffff821115610845576108446107af565b5b602082029050602081019050919050565b600080fd5b600061086e6108698461082a565b61080f565b9050808382526020820190506020840283018581111561089157610890610856565b5b835b818110156108ba57806108a68882610757565b845260208401935050602081019050610893565b5050509392505050565b600082601f8301126108d9576108d8610799565b5b81356108e984826020860161085b565b91505092915050565b6000806000806080858703121561090c5761090b610675565b5b600061091a878288016106c8565b945050602061092b87828801610757565b935050604061093c87828801610757565b925050606085013567ffffffffffffffff81111561095d5761095c61067a565b5b610969878288016108c4565b91505092959194509250565b600081519050919050565b600082825260208201905092915050565b6000819050602082019050919050565b600082825260208201905092915050565b60006109bd82610557565b6109c781856109a1565b93506109d283610573565b8060005b83811015610a035781516109ea888261059c565b97506109f5836105b4565b9250506001810190506109d6565b5085935050505092915050565b6000610a1c83836109b2565b905092915050565b6000602082019050919050565b6000610a3c82610975565b610a468185610980565b935083602082028501610a5885610991565b8060005b85811015610a945784840389528151610a758582610a10565b9450610a8083610a24565b925060208a01995050600181019050610a5c565b50829750879550505050505092915050565b60006020820190508181036000830152610ac08184610a31565b905092915050565b60008060408385031215610adf57610ade610675565b5b6000610aed85828601610757565b9250506020610afe85828601610757565b9150509250929050565b600082825260208201905092915050565b7f4d7573742062652063616c6c65642066726f6d2074686520656c656374696f6e60008201527f206f7267616e697a657220636f6e747261637400000000000000000000000000602082015250565b6000610b75603383610b08565b9150610b8082610b19565b604082019050919050565b60006020820190508181036000830152610ba481610b68565b9050919050565b7f566f74657220616c726561647920766f74656400000000000000000000000000600082015250565b6000610be1601383610b08565b9150610bec82610bab565b602082019050919050565b60006020820190508181036000830152610c1081610bd4565b9050919050565b7f4e487b7100000000000000000000000000000000000000000000000000000000600052601160045260246000fd5b6000610c5182610583565b9150610c5c83610583565b9250827fffffffffffffffffffffffffffffffffffffffffffffffffffffffffffffffff03821115610c9157610c90610c17565b5b828201905092915050565b7f416c726561647920496e697469616c697a656400000000000000000000000000600082015250565b6000610cd2601383610b08565b9150610cdd82610c9c565b602082019050919050565b60006020820190508181036000830152610d0181610cc5565b905091905056fea26469706673582212202a9c1ef8d47e8f8ed62e854ca8002e02262cc50edc2c2b72f873d7d741c892b064736f6c634300080a0033",
  "linkReferences": {},
  "deployedLinkReferences": {}
}