{
  "_format": "hh-sol-artifact-1",
  "contractName": "GetBallot1",
  "sourceName": "contracts/facets/GetBallot1.sol",
  "abi": [
    {
      "inputs": [
        {
          "internalType": "uint256",
          "name": "_ballotType",
          "type": "uint256"
        }
      ],
      "name": "getNewBallot1",
      "outputs": [],
      "stateMutability": "nonpayable",
      "type": "function"
    }
  ],
  "bytecode": "0x608060405234801561001057600080fd5b50613020806100206000396000f3fe608060405234801561001057600080fd5b506004361061002b5760003560e01c806385ef64fb14610030575b600080fd5b61004a600480360381019061004591906102b7565b61004c565b005b60018114156100c25760405161006190610255565b604051809103906000f08015801561007d573d6000803e3d6000fd5b506000806101000a81548173ffffffffffffffffffffffffffffffffffffffff021916908373ffffffffffffffffffffffffffffffffffffffff1602179055506101bb565b6002811415610138576040516100d790610262565b604051809103906000f0801580156100f3573d6000803e3d6000fd5b506000806101000a81548173ffffffffffffffffffffffffffffffffffffffff021916908373ffffffffffffffffffffffffffffffffffffffff1602179055506101ba565b6003811415610146576101b9565b60048114156101b85760405161015b9061026f565b604051809103906000f080158015610177573d6000803e3d6000fd5b506000806101000a81548173ffffffffffffffffffffffffffffffffffffffff021916908373ffffffffffffffffffffffffffffffffffffffff1602179055505b5b5b5b60008054906101000a900473ffffffffffffffffffffffffffffffffffffffff166101e4610228565b60000160006101000a81548173ffffffffffffffffffffffffffffffffffffffff021916908373ffffffffffffffffffffffffffffffffffffffff16021790555050565b6000807f5b43f313088137496832405d64cc708765db93c8144d82f7a7f806ac22d5603b90508091505090565b610d5e806102e583390190565b61108d8061104383390190565b610f1b806120d083390190565b600080fd5b6000819050919050565b61029481610281565b811461029f57600080fd5b50565b6000813590506102b18161028b565b92915050565b6000602082840312156102cd576102cc61027c565b5b60006102db848285016102a2565b9150509291505056fe608060405234801561001057600080fd5b50610d3e806100206000396000f3fe608060405234801561001057600080fd5b50600436106100935760003560e01c8063a1818ac411610066578063a1818ac414610134578063afa5240814610150578063c4d66de81461016e578063de2e19a01461018a578063e844d097146101ba57610093565b806306a49fce1461009857806330a56347146100b6578063521b0dcc146100d45780635df8133014610104575b600080fd5b6100a06101d6565b6040516100ad919061061f565b60405180910390f35b6100be61022e565b6040516100cb9190610650565b60405180910390f35b6100ee60048036038101906100e991906106dd565b61023a565b6040516100fb9190610725565b60405180910390f35b61011e6004803603810190610119919061076c565b610290565b60405161012b9190610650565b60405180910390f35b61014e600480360381019061014991906108f2565b6102a8565b005b610158610453565b6040516101659190610aa6565b60405180910390f35b610188600480360381019061018391906106dd565b610458565b005b6101a4600480360381019061019f9190610ac8565b61050d565b6040516101b19190610650565b60405180910390f35b6101d460048036038101906101cf919061076c565b61052b565b005b6060600080548060200260200160405190810160405280929190818152602001828054801561022457602002820191906000526020600020905b815481526020019060010190808311610210575b5050505050905090565b60008080549050905090565b6000600160008373ffffffffffffffffffffffffffffffffffffffff1673ffffffffffffffffffffffffffffffffffffffff16815260200190815260200160002060009054906101000a900460ff169050919050565b60036020528060005260406000206000915090505481565b600260009054906101000a900473ffffffffffffffffffffffffffffffffffffffff1673ffffffffffffffffffffffffffffffffffffffff163373ffffffffffffffffffffffffffffffffffffffff1614610338576040517f08c379a000000000000000000000000000000000000000000000000000000000815260040161032f90610b8b565b60405180910390fd5b60001515600160008673ffffffffffffffffffffffffffffffffffffffff1673ffffffffffffffffffffffffffffffffffffffff16815260200190815260200160002060009054906101000a900460ff161515146103cb576040517f08c379a00000000000000000000000000000000000000000000000000000000081526004016103c290610bf7565b60405180910390fd5b60016003600085815260200190815260200160002060008282546103ef9190610c46565b9250508190555060018060008673ffffffffffffffffffffffffffffffffffffffff1673ffffffffffffffffffffffffffffffffffffffff16815260200190815260200160002060006101000a81548160ff02191690831515021790555050505050565b606090565b60001515600260149054906101000a900460ff161515146104ae576040517f08c379a00000000000000000000000000000000000000000000000000000000081526004016104a590610ce8565b60405180910390fd5b80600260006101000a81548173ffffffffffffffffffffffffffffffffffffffff021916908373ffffffffffffffffffffffffffffffffffffffff1602179055506001600260146101000a81548160ff02191690831515021790555050565b60006003600084815260200190815260200160002054905092915050565b600081908060018154018082558091505060019003906000526020600020016000909190919091505550565b600081519050919050565b600082825260208201905092915050565b6000819050602082019050919050565b6000819050919050565b61059681610583565b82525050565b60006105a8838361058d565b60208301905092915050565b6000602082019050919050565b60006105cc82610557565b6105d68185610562565b93506105e183610573565b8060005b838110156106125781516105f9888261059c565b9750610604836105b4565b9250506001810190506105e5565b5085935050505092915050565b6000602082019050818103600083015261063981846105c1565b905092915050565b61064a81610583565b82525050565b60006020820190506106656000830184610641565b92915050565b6000604051905090565b600080fd5b600080fd5b600073ffffffffffffffffffffffffffffffffffffffff82169050919050565b60006106aa8261067f565b9050919050565b6106ba8161069f565b81146106c557600080fd5b50565b6000813590506106d7816106b1565b92915050565b6000602082840312156106f3576106f2610675565b5b6000610701848285016106c8565b91505092915050565b60008115159050919050565b61071f8161070a565b82525050565b600060208201905061073a6000830184610716565b92915050565b61074981610583565b811461075457600080fd5b50565b60008135905061076681610740565b92915050565b60006020828403121561078257610781610675565b5b600061079084828501610757565b91505092915050565b600080fd5b6000601f19601f8301169050919050565b7f4e487b7100000000000000000000000000000000000000000000000000000000600052604160045260246000fd5b6107e78261079e565b810181811067ffffffffffffffff82111715610806576108056107af565b5b80604052505050565b600061081961066b565b905061082582826107de565b919050565b600067ffffffffffffffff821115610845576108446107af565b5b602082029050602081019050919050565b600080fd5b600061086e6108698461082a565b61080f565b9050808382526020820190506020840283018581111561089157610890610856565b5b835b818110156108ba57806108a68882610757565b845260208401935050602081019050610893565b5050509392505050565b600082601f8301126108d9576108d8610799565b5b81356108e984826020860161085b565b91505092915050565b6000806000806080858703121561090c5761090b610675565b5b600061091a878288016106c8565b945050602061092b87828801610757565b935050604061093c87828801610757565b925050606085013567ffffffffffffffff81111561095d5761095c61067a565b5b610969878288016108c4565b91505092959194509250565b600081519050919050565b600082825260208201905092915050565b6000819050602082019050919050565b600082825260208201905092915050565b60006109bd82610557565b6109c781856109a1565b93506109d283610573565b8060005b83811015610a035781516109ea888261059c565b97506109f5836105b4565b9250506001810190506109d6565b5085935050505092915050565b6000610a1c83836109b2565b905092915050565b6000602082019050919050565b6000610a3c82610975565b610a468185610980565b935083602082028501610a5885610991565b8060005b85811015610a945784840389528151610a758582610a10565b9450610a8083610a24565b925060208a01995050600181019050610a5c565b50829750879550505050505092915050565b60006020820190508181036000830152610ac08184610a31565b905092915050565b60008060408385031215610adf57610ade610675565b5b6000610aed85828601610757565b9250506020610afe85828601610757565b9150509250929050565b600082825260208201905092915050565b7f4d7573742062652063616c6c65642066726f6d2074686520656c656374696f6e60008201527f206f7267616e697a657220636f6e747261637400000000000000000000000000602082015250565b6000610b75603383610b08565b9150610b8082610b19565b604082019050919050565b60006020820190508181036000830152610ba481610b68565b9050919050565b7f566f74657220616c726561647920766f74656400000000000000000000000000600082015250565b6000610be1601383610b08565b9150610bec82610bab565b602082019050919050565b60006020820190508181036000830152610c1081610bd4565b9050919050565b7f4e487b7100000000000000000000000000000000000000000000000000000000600052601160045260246000fd5b6000610c5182610583565b9150610c5c83610583565b9250827fffffffffffffffffffffffffffffffffffffffffffffffffffffffffffffffff03821115610c9157610c90610c17565b5b828201905092915050565b7f416c726561647920496e697469616c697a656400000000000000000000000000600082015250565b6000610cd2601383610b08565b9150610cdd82610c9c565b602082019050919050565b60006020820190508181036000830152610d0181610cc5565b905091905056fea26469706673582212202a9c1ef8d47e8f8ed62e854ca8002e02262cc50edc2c2b72f873d7d741c892b064736f6c634300080a0033608060405234801561001057600080fd5b5061106d806100206000396000f3fe608060405234801561001057600080fd5b50600436106100885760003560e01c8063afa524081161005b578063afa5240814610115578063c4d66de814610133578063de2e19a01461014f578063e844d0971461017f57610088565b806306a49fce1461008d57806330a56347146100ab578063521b0dcc146100c9578063a1818ac4146100f9575b600080fd5b61009561019b565b6040516100a2919061082a565b60405180910390f35b6100b36101f3565b6040516100c0919061085b565b60405180910390f35b6100e360048036038101906100de91906108e8565b6101ff565b6040516100f09190610930565b60405180910390f35b610113600480360381019061010e9190610ad0565b610255565b005b61011d610648565b60405161012a9190610c84565b60405180910390f35b61014d600480360381019061014891906108e8565b610652565b005b61016960048036038101906101649190610ca6565b610707565b604051610176919061085b565b60405180910390f35b61019960048036038101906101949190610ce6565b610736565b005b606060008054806020026020016040519081016040528092919081815260200182805480156101e957602002820191906000526020600020905b8154815260200190600101908083116101d5575b5050505050905090565b60008080549050905090565b6000600160008373ffffffffffffffffffffffffffffffffffffffff1673ffffffffffffffffffffffffffffffffffffffff16815260200190815260200160002060009054906101000a900460ff169050919050565b600260009054906101000a900473ffffffffffffffffffffffffffffffffffffffff1673ffffffffffffffffffffffffffffffffffffffff163373ffffffffffffffffffffffffffffffffffffffff16146102e5576040517f08c379a00000000000000000000000000000000000000000000000000000000081526004016102dc90610d96565b60405180910390fd5b60001515600160008673ffffffffffffffffffffffffffffffffffffffff1673ffffffffffffffffffffffffffffffffffffffff16815260200190815260200160002060009054906101000a900460ff16151514610378576040517f08c379a000000000000000000000000000000000000000000000000000000000815260040161036f90610e02565b60405180910390fd5b60001515600460008673ffffffffffffffffffffffffffffffffffffffff1673ffffffffffffffffffffffffffffffffffffffff168152602001908152602001600020600085815260200190815260200160002060009054906101000a900460ff1615151461041c576040517f08c379a000000000000000000000000000000000000000000000000000000000815260040161041390610e94565b60405180910390fd5b600080549050600560008673ffffffffffffffffffffffffffffffffffffffff1673ffffffffffffffffffffffffffffffffffffffff16815260200190815260200160002054106104a2576040517f08c379a000000000000000000000000000000000000000000000000000000000815260040161049990610f26565b60405180910390fd5b600160036000848152602001908152602001600020600085815260200190815260200160002060008282546104d79190610f75565b925050819055506001600560008673ffffffffffffffffffffffffffffffffffffffff1673ffffffffffffffffffffffffffffffffffffffff168152602001908152602001600020600082825461052e9190610f75565b925050819055506001600460008673ffffffffffffffffffffffffffffffffffffffff1673ffffffffffffffffffffffffffffffffffffffff168152602001908152602001600020600085815260200190815260200160002060006101000a81548160ff021916908315150217905550600080549050600560008673ffffffffffffffffffffffffffffffffffffffff1673ffffffffffffffffffffffffffffffffffffffff1681526020019081526020016000205414156106425760018060008673ffffffffffffffffffffffffffffffffffffffff1673ffffffffffffffffffffffffffffffffffffffff16815260200190815260200160002060006101000a81548160ff0219169083151502179055505b50505050565b6060808091505090565b60001515600260149054906101000a900460ff161515146106a8576040517f08c379a000000000000000000000000000000000000000000000000000000000815260040161069f90611017565b60405180910390fd5b80600260006101000a81548173ffffffffffffffffffffffffffffffffffffffff021916908373ffffffffffffffffffffffffffffffffffffffff1602179055506001600260146101000a81548160ff02191690831515021790555050565b600060036000838152602001908152602001600020600084815260200190815260200160002054905092915050565b600081908060018154018082558091505060019003906000526020600020016000909190919091505550565b600081519050919050565b600082825260208201905092915050565b6000819050602082019050919050565b6000819050919050565b6107a18161078e565b82525050565b60006107b38383610798565b60208301905092915050565b6000602082019050919050565b60006107d782610762565b6107e1818561076d565b93506107ec8361077e565b8060005b8381101561081d57815161080488826107a7565b975061080f836107bf565b9250506001810190506107f0565b5085935050505092915050565b6000602082019050818103600083015261084481846107cc565b905092915050565b6108558161078e565b82525050565b6000602082019050610870600083018461084c565b92915050565b6000604051905090565b600080fd5b600080fd5b600073ffffffffffffffffffffffffffffffffffffffff82169050919050565b60006108b58261088a565b9050919050565b6108c5816108aa565b81146108d057600080fd5b50565b6000813590506108e2816108bc565b92915050565b6000602082840312156108fe576108fd610880565b5b600061090c848285016108d3565b91505092915050565b60008115159050919050565b61092a81610915565b82525050565b60006020820190506109456000830184610921565b92915050565b6109548161078e565b811461095f57600080fd5b50565b6000813590506109718161094b565b92915050565b600080fd5b6000601f19601f8301169050919050565b7f4e487b7100000000000000000000000000000000000000000000000000000000600052604160045260246000fd5b6109c58261097c565b810181811067ffffffffffffffff821117156109e4576109e361098d565b5b80604052505050565b60006109f7610876565b9050610a0382826109bc565b919050565b600067ffffffffffffffff821115610a2357610a2261098d565b5b602082029050602081019050919050565b600080fd5b6000610a4c610a4784610a08565b6109ed565b90508083825260208201905060208402830185811115610a6f57610a6e610a34565b5b835b81811015610a985780610a848882610962565b845260208401935050602081019050610a71565b5050509392505050565b600082601f830112610ab757610ab6610977565b5b8135610ac7848260208601610a39565b91505092915050565b60008060008060808587031215610aea57610ae9610880565b5b6000610af8878288016108d3565b9450506020610b0987828801610962565b9350506040610b1a87828801610962565b925050606085013567ffffffffffffffff811115610b3b57610b3a610885565b5b610b4787828801610aa2565b91505092959194509250565b600081519050919050565b600082825260208201905092915050565b6000819050602082019050919050565b600082825260208201905092915050565b6000610b9b82610762565b610ba58185610b7f565b9350610bb08361077e565b8060005b83811015610be1578151610bc888826107a7565b9750610bd3836107bf565b925050600181019050610bb4565b5085935050505092915050565b6000610bfa8383610b90565b905092915050565b6000602082019050919050565b6000610c1a82610b53565b610c248185610b5e565b935083602082028501610c3685610b6f565b8060005b85811015610c725784840389528151610c538582610bee565b9450610c5e83610c02565b925060208a01995050600181019050610c3a565b50829750879550505050505092915050565b60006020820190508181036000830152610c9e8184610c0f565b905092915050565b60008060408385031215610cbd57610cbc610880565b5b6000610ccb85828601610962565b9250506020610cdc85828601610962565b9150509250929050565b600060208284031215610cfc57610cfb610880565b5b6000610d0a84828501610962565b91505092915050565b600082825260208201905092915050565b7f4d7573742062652063616c6c65642066726f6d2074686520656c656374696f6e60008201527f206f7267616e697a657220636f6e747261637400000000000000000000000000602082015250565b6000610d80603383610d13565b9150610d8b82610d24565b604082019050919050565b60006020820190508181036000830152610daf81610d73565b9050919050565b7f566f74657220616c726561647920766f74656400000000000000000000000000600082015250565b6000610dec601383610d13565b9150610df782610db6565b602082019050919050565b60006020820190508181036000830152610e1b81610ddf565b9050919050565b7f566f74657220616c726561647920766f74656420666f7220746869732063616e60008201527f6469646174650000000000000000000000000000000000000000000000000000602082015250565b6000610e7e602683610d13565b9150610e8982610e22565b604082019050919050565b60006020820190508181036000830152610ead81610e71565b9050919050565b7f4d617820766f74657320616c72656164792063617374656420627920766f746560008201527f7200000000000000000000000000000000000000000000000000000000000000602082015250565b6000610f10602183610d13565b9150610f1b82610eb4565b604082019050919050565b60006020820190508181036000830152610f3f81610f03565b9050919050565b7f4e487b7100000000000000000000000000000000000000000000000000000000600052601160045260246000fd5b6000610f808261078e565b9150610f8b8361078e565b9250827fffffffffffffffffffffffffffffffffffffffffffffffffffffffffffffffff03821115610fc057610fbf610f46565b5b828201905092915050565b7f416c726561647920496e697469616c697a656400000000000000000000000000600082015250565b6000611001601383610d13565b915061100c82610fcb565b602082019050919050565b6000602082019050818103600083015261103081610ff4565b905091905056fea2646970667358221220932f1647dc7248d47ef427ff7c283ccb40ca094644fc5843a0e870131929509164736f6c634300080a0033608060405234801561001057600080fd5b50610efb806100206000396000f3fe608060405234801561001057600080fd5b50600436106100885760003560e01c8063afa524081161005b578063afa5240814610115578063c4d66de814610133578063de2e19a01461014f578063e844d0971461017f57610088565b806306a49fce1461008d57806330a56347146100ab578063521b0dcc146100c9578063a1818ac4146100f9575b600080fd5b61009561019b565b6040516100a291906107dc565b60405180910390f35b6100b36101f3565b6040516100c0919061080d565b60405180910390f35b6100e360048036038101906100de919061089a565b6101ff565b6040516100f091906108e2565b60405180910390f35b610113600480360381019061010e9190610a82565b610255565b005b61011d61051e565b60405161012a9190610c36565b60405180910390f35b61014d6004803603810190610148919061089a565b6105bd565b005b61016960048036038101906101649190610c58565b610672565b604051610176919061080d565b60405180910390f35b61019960048036038101906101949190610c98565b61067e565b005b606060008054806020026020016040519081016040528092919081815260200182805480156101e957602002820191906000526020600020905b8154815260200190600101908083116101d5575b5050505050905090565b60008080549050905090565b6000600160008373ffffffffffffffffffffffffffffffffffffffff1673ffffffffffffffffffffffffffffffffffffffff16815260200190815260200160002060009054906101000a900460ff169050919050565b600260009054906101000a900473ffffffffffffffffffffffffffffffffffffffff1673ffffffffffffffffffffffffffffffffffffffff163373ffffffffffffffffffffffffffffffffffffffff16146102e5576040517f08c379a00000000000000000000000000000000000000000000000000000000081526004016102dc90610d48565b60405180910390fd5b60001515600160008673ffffffffffffffffffffffffffffffffffffffff1673ffffffffffffffffffffffffffffffffffffffff16815260200190815260200160002060009054906101000a900460ff16151514610378576040517f08c379a000000000000000000000000000000000000000000000000000000000815260040161036f90610db4565b60405180910390fd5b6003819080600181540180825580915050600190039060005260206000200160009091909190915090805190602001906103b39291906106aa565b506001600560008673ffffffffffffffffffffffffffffffffffffffff1673ffffffffffffffffffffffffffffffffffffffff16815260200190815260200160002060008282546104049190610e03565b925050819055506001600460008673ffffffffffffffffffffffffffffffffffffffff1673ffffffffffffffffffffffffffffffffffffffff168152602001908152602001600020600085815260200190815260200160002060006101000a81548160ff021916908315150217905550600080549050600560008673ffffffffffffffffffffffffffffffffffffffff1673ffffffffffffffffffffffffffffffffffffffff1681526020019081526020016000205414156105185760018060008673ffffffffffffffffffffffffffffffffffffffff1673ffffffffffffffffffffffffffffffffffffffff16815260200190815260200160002060006101000a81548160ff0219169083151502179055505b50505050565b60606003805480602002602001604051908101604052809291908181526020016000905b828210156105b4578382906000526020600020018054806020026020016040519081016040528092919081815260200182805480156105a057602002820191906000526020600020905b81548152602001906001019080831161058c575b505050505081526020019060010190610542565b50505050905090565b60001515600260149054906101000a900460ff16151514610613576040517f08c379a000000000000000000000000000000000000000000000000000000000815260040161060a90610ea5565b60405180910390fd5b80600260006101000a81548173ffffffffffffffffffffffffffffffffffffffff021916908373ffffffffffffffffffffffffffffffffffffffff1602179055506001600260146101000a81548160ff02191690831515021790555050565b60006001905092915050565b600081908060018154018082558091505060019003906000526020600020016000909190919091505550565b8280548282559060005260206000209081019282156106e6579160200282015b828111156106e55782518255916020019190600101906106ca565b5b5090506106f391906106f7565b5090565b5b808211156107105760008160009055506001016106f8565b5090565b600081519050919050565b600082825260208201905092915050565b6000819050602082019050919050565b6000819050919050565b61075381610740565b82525050565b6000610765838361074a565b60208301905092915050565b6000602082019050919050565b600061078982610714565b610793818561071f565b935061079e83610730565b8060005b838110156107cf5781516107b68882610759565b97506107c183610771565b9250506001810190506107a2565b5085935050505092915050565b600060208201905081810360008301526107f6818461077e565b905092915050565b61080781610740565b82525050565b600060208201905061082260008301846107fe565b92915050565b6000604051905090565b600080fd5b600080fd5b600073ffffffffffffffffffffffffffffffffffffffff82169050919050565b60006108678261083c565b9050919050565b6108778161085c565b811461088257600080fd5b50565b6000813590506108948161086e565b92915050565b6000602082840312156108b0576108af610832565b5b60006108be84828501610885565b91505092915050565b60008115159050919050565b6108dc816108c7565b82525050565b60006020820190506108f760008301846108d3565b92915050565b61090681610740565b811461091157600080fd5b50565b600081359050610923816108fd565b92915050565b600080fd5b6000601f19601f8301169050919050565b7f4e487b7100000000000000000000000000000000000000000000000000000000600052604160045260246000fd5b6109778261092e565b810181811067ffffffffffffffff821117156109965761099561093f565b5b80604052505050565b60006109a9610828565b90506109b5828261096e565b919050565b600067ffffffffffffffff8211156109d5576109d461093f565b5b602082029050602081019050919050565b600080fd5b60006109fe6109f9846109ba565b61099f565b90508083825260208201905060208402830185811115610a2157610a206109e6565b5b835b81811015610a4a5780610a368882610914565b845260208401935050602081019050610a23565b5050509392505050565b600082601f830112610a6957610a68610929565b5b8135610a798482602086016109eb565b91505092915050565b60008060008060808587031215610a9c57610a9b610832565b5b6000610aaa87828801610885565b9450506020610abb87828801610914565b9350506040610acc87828801610914565b925050606085013567ffffffffffffffff811115610aed57610aec610837565b5b610af987828801610a54565b91505092959194509250565b600081519050919050565b600082825260208201905092915050565b6000819050602082019050919050565b600082825260208201905092915050565b6000610b4d82610714565b610b578185610b31565b9350610b6283610730565b8060005b83811015610b93578151610b7a8882610759565b9750610b8583610771565b925050600181019050610b66565b5085935050505092915050565b6000610bac8383610b42565b905092915050565b6000602082019050919050565b6000610bcc82610b05565b610bd68185610b10565b935083602082028501610be885610b21565b8060005b85811015610c245784840389528151610c058582610ba0565b9450610c1083610bb4565b925060208a01995050600181019050610bec565b50829750879550505050505092915050565b60006020820190508181036000830152610c508184610bc1565b905092915050565b60008060408385031215610c6f57610c6e610832565b5b6000610c7d85828601610914565b9250506020610c8e85828601610914565b9150509250929050565b600060208284031215610cae57610cad610832565b5b6000610cbc84828501610914565b91505092915050565b600082825260208201905092915050565b7f4d7573742062652063616c6c65642066726f6d2074686520656c656374696f6e60008201527f206f7267616e697a657220636f6e747261637400000000000000000000000000602082015250565b6000610d32603383610cc5565b9150610d3d82610cd6565b604082019050919050565b60006020820190508181036000830152610d6181610d25565b9050919050565b7f566f74657220616c726561647920766f74656400000000000000000000000000600082015250565b6000610d9e601383610cc5565b9150610da982610d68565b602082019050919050565b60006020820190508181036000830152610dcd81610d91565b9050919050565b7f4e487b7100000000000000000000000000000000000000000000000000000000600052601160045260246000fd5b6000610e0e82610740565b9150610e1983610740565b9250827fffffffffffffffffffffffffffffffffffffffffffffffffffffffffffffffff03821115610e4e57610e4d610dd4565b5b828201905092915050565b7f416c726561647920496e697469616c697a656400000000000000000000000000600082015250565b6000610e8f601383610cc5565b9150610e9a82610e59565b602082019050919050565b60006020820190508181036000830152610ebe81610e82565b905091905056fea26469706673582212200de06d471a6f5c70c42ea922c6dd8a20484904b7912e4e147d0dad716f0ed22064736f6c634300080a0033a2646970667358221220973c6ee89294c45f7ace92cd61a1f3b356be94834cb501dfc4d1fe7df8a5f3ad64736f6c634300080a0033",
  "linkReferences": {},
  "deployedLinkReferences": {}
}