{
  "_format": "hh-sol-artifact-1",
  "contractName": "Election",
  "sourceName": "contracts/facets/Election.sol",
  "abi": [
    {
      "inputs": [
        {
          "components": [
            {
              "internalType": "uint256",
              "name": "electionID",
              "type": "uint256"
            },
            {
              "internalType": "string",
              "name": "name",
              "type": "string"
            },
            {
              "internalType": "string",
              "name": "description",
              "type": "string"
            },
            {
              "internalType": "uint256",
              "name": "startDate",
              "type": "uint256"
            },
            {
              "internalType": "uint256",
              "name": "endDate",
              "type": "uint256"
            },
            {
              "internalType": "bool",
              "name": "electionType",
              "type": "bool"
            }
          ],
          "internalType": "struct Election.ElectionInfo",
          "name": "_electionInfo",
          "type": "tuple"
        },
        {
          "internalType": "contract Ballot",
          "name": "_ballot",
          "type": "address"
        },
        {
          "internalType": "contract ResultCalculator",
          "name": "_resultCalculator",
          "type": "address"
        },
        {
          "internalType": "address",
          "name": "_electionOrganizer",
          "type": "address"
        },
        {
          "internalType": "address",
          "name": "_electionOrganizerContract",
          "type": "address"
        },
        {
          "internalType": "uint256",
          "name": "_ballotType",
          "type": "uint256"
        },
        {
          "internalType": "address",
          "name": "_authentication",
          "type": "address"
        }
      ],
      "stateMutability": "nonpayable",
      "type": "constructor"
    },
    {
      "anonymous": false,
      "inputs": [
        {
          "indexed": false,
          "internalType": "address",
          "name": "election",
          "type": "address"
        },
        {
          "indexed": false,
          "internalType": "address",
          "name": "ballot",
          "type": "address"
        },
        {
          "components": [
            {
              "internalType": "uint256",
              "name": "candidateID",
              "type": "uint256"
            },
            {
              "internalType": "string",
              "name": "name",
              "type": "string"
            },
            {
              "internalType": "string",
              "name": "description",
              "type": "string"
            }
          ],
          "indexed": false,
          "internalType": "struct Election.Candidate",
          "name": "candidate",
          "type": "tuple"
        }
      ],
      "name": "CandidateAdded",
      "type": "event"
    },
    {
      "anonymous": false,
      "inputs": [
        {
          "indexed": false,
          "internalType": "uint256[]",
          "name": "winners",
          "type": "uint256[]"
        }
      ],
      "name": "ListWinners",
      "type": "event"
    },
    {
      "anonymous": false,
      "inputs": [
        {
          "indexed": false,
          "internalType": "address",
          "name": "ballot",
          "type": "address"
        },
        {
          "components": [
            {
              "internalType": "uint256",
              "name": "candidateID",
              "type": "uint256"
            },
            {
              "internalType": "string",
              "name": "name",
              "type": "string"
            },
            {
              "internalType": "string",
              "name": "description",
              "type": "string"
            }
          ],
          "indexed": false,
          "internalType": "struct Election.Candidate",
          "name": "candidate",
          "type": "tuple"
        },
        {
          "indexed": false,
          "internalType": "uint256",
          "name": "weight",
          "type": "uint256"
        }
      ],
      "name": "VoteCasted",
      "type": "event"
    },
    {
      "inputs": [
        {
          "components": [
            {
              "internalType": "uint256",
              "name": "candidateID",
              "type": "uint256"
            },
            {
              "internalType": "string",
              "name": "name",
              "type": "string"
            },
            {
              "internalType": "string",
              "name": "description",
              "type": "string"
            }
          ],
          "internalType": "struct Election.Candidate",
          "name": "_candidate",
          "type": "tuple"
        }
      ],
      "name": "addCandidate",
      "outputs": [],
      "stateMutability": "nonpayable",
      "type": "function"
    },
    {
      "inputs": [],
      "name": "authentication",
      "outputs": [
        {
          "internalType": "contract Authentication",
          "name": "",
          "type": "address"
        }
      ],
      "stateMutability": "view",
      "type": "function"
    },
    {
      "inputs": [],
      "name": "getBallot",
      "outputs": [
        {
          "internalType": "address",
          "name": "",
          "type": "address"
        }
      ],
      "stateMutability": "view",
      "type": "function"
    },
    {
      "inputs": [],
      "name": "getBallotType",
      "outputs": [
        {
          "internalType": "uint256",
          "name": "",
          "type": "uint256"
        }
      ],
      "stateMutability": "view",
      "type": "function"
    },
    {
      "inputs": [
        {
          "internalType": "uint256",
          "name": "_candidateID",
          "type": "uint256"
        }
      ],
      "name": "getCandidateByID",
      "outputs": [
        {
          "components": [
            {
              "internalType": "uint256",
              "name": "candidateID",
              "type": "uint256"
            },
            {
              "internalType": "string",
              "name": "name",
              "type": "string"
            },
            {
              "internalType": "string",
              "name": "description",
              "type": "string"
            }
          ],
          "internalType": "struct Election.Candidate",
          "name": "",
          "type": "tuple"
        }
      ],
      "stateMutability": "view",
      "type": "function"
    },
    {
      "inputs": [],
      "name": "getCandidateCount",
      "outputs": [
        {
          "internalType": "uint256",
          "name": "",
          "type": "uint256"
        }
      ],
      "stateMutability": "view",
      "type": "function"
    },
    {
      "inputs": [],
      "name": "getCandidates",
      "outputs": [
        {
          "components": [
            {
              "internalType": "uint256",
              "name": "candidateID",
              "type": "uint256"
            },
            {
              "internalType": "string",
              "name": "name",
              "type": "string"
            },
            {
              "internalType": "string",
              "name": "description",
              "type": "string"
            }
          ],
          "internalType": "struct Election.Candidate[]",
          "name": "",
          "type": "tuple[]"
        }
      ],
      "stateMutability": "view",
      "type": "function"
    },
    {
      "inputs": [],
      "name": "getElectionInfo",
      "outputs": [
        {
          "components": [
            {
              "internalType": "uint256",
              "name": "electionID",
              "type": "uint256"
            },
            {
              "internalType": "string",
              "name": "name",
              "type": "string"
            },
            {
              "internalType": "string",
              "name": "description",
              "type": "string"
            },
            {
              "internalType": "uint256",
              "name": "startDate",
              "type": "uint256"
            },
            {
              "internalType": "uint256",
              "name": "endDate",
              "type": "uint256"
            },
            {
              "internalType": "bool",
              "name": "electionType",
              "type": "bool"
            }
          ],
          "internalType": "struct Election.ElectionInfo",
          "name": "",
          "type": "tuple"
        }
      ],
      "stateMutability": "view",
      "type": "function"
    },
    {
      "inputs": [],
      "name": "getElectionOrganizer",
      "outputs": [
        {
          "internalType": "address",
          "name": "",
          "type": "address"
        }
      ],
      "stateMutability": "view",
      "type": "function"
    },
    {
      "inputs": [],
      "name": "getElectionType",
      "outputs": [
        {
          "internalType": "bool",
          "name": "",
          "type": "bool"
        }
      ],
      "stateMutability": "view",
      "type": "function"
    },
    {
      "inputs": [],
      "name": "getResult",
      "outputs": [
        {
          "internalType": "uint256[]",
          "name": "",
          "type": "uint256[]"
        }
      ],
      "stateMutability": "nonpayable",
      "type": "function"
    },
    {
      "inputs": [],
      "name": "getResultCalculator",
      "outputs": [
        {
          "internalType": "address",
          "name": "",
          "type": "address"
        }
      ],
      "stateMutability": "view",
      "type": "function"
    },
    {
      "inputs": [],
      "name": "getStatus",
      "outputs": [
        {
          "internalType": "enum Election.Status",
          "name": "",
          "type": "uint8"
        }
      ],
      "stateMutability": "view",
      "type": "function"
    },
    {
      "inputs": [
        {
          "internalType": "address",
          "name": "_voter",
          "type": "address"
        }
      ],
      "name": "getVoteStatus",
      "outputs": [
        {
          "internalType": "bool",
          "name": "",
          "type": "bool"
        }
      ],
      "stateMutability": "view",
      "type": "function"
    },
    {
      "inputs": [],
      "name": "getVoterCount",
      "outputs": [
        {
          "internalType": "uint256",
          "name": "",
          "type": "uint256"
        }
      ],
      "stateMutability": "view",
      "type": "function"
    },
    {
      "inputs": [],
      "name": "getWinners",
      "outputs": [
        {
          "internalType": "uint256[]",
          "name": "",
          "type": "uint256[]"
        }
      ],
      "stateMutability": "view",
      "type": "function"
    },
    {
      "inputs": [
        {
          "internalType": "string",
          "name": "_name",
          "type": "string"
        },
        {
          "internalType": "string",
          "name": "_description",
          "type": "string"
        },
        {
          "internalType": "uint256",
          "name": "index",
          "type": "uint256"
        }
      ],
      "name": "updateCandidateInfo",
      "outputs": [],
      "stateMutability": "nonpayable",
      "type": "function"
    },
    {
      "inputs": [
        {
          "components": [
            {
              "internalType": "uint256",
              "name": "electionID",
              "type": "uint256"
            },
            {
              "internalType": "string",
              "name": "name",
              "type": "string"
            },
            {
              "internalType": "string",
              "name": "description",
              "type": "string"
            },
            {
              "internalType": "uint256",
              "name": "startDate",
              "type": "uint256"
            },
            {
              "internalType": "uint256",
              "name": "endDate",
              "type": "uint256"
            },
            {
              "internalType": "bool",
              "name": "electionType",
              "type": "bool"
            }
          ],
          "internalType": "struct Election.ElectionInfo",
          "name": "_electionInfo",
          "type": "tuple"
        }
      ],
      "name": "updateElectionInfo",
      "outputs": [],
      "stateMutability": "nonpayable",
      "type": "function"
    },
    {
      "inputs": [
        {
          "internalType": "uint256",
          "name": "voter",
          "type": "uint256"
        },
        {
          "internalType": "uint256",
          "name": "_candidateID",
          "type": "uint256"
        },
        {
          "internalType": "uint256",
          "name": "weight",
          "type": "uint256"
        },
        {
          "internalType": "uint256[]",
          "name": "voteArr",
          "type": "uint256[]"
        }
      ],
      "name": "vote",
      "outputs": [],
      "stateMutability": "nonpayable",
      "type": "function"
    }
  ],
  "bytecode": "0x60806040523480156200001157600080fd5b50604051620036483803806200364883398181016040528101906200003791906200076a565b83600b60006101000a81548173ffffffffffffffffffffffffffffffffffffffff021916908373ffffffffffffffffffffffffffffffffffffffff16021790555082600c60006101000a81548173ffffffffffffffffffffffffffffffffffffffff021916908373ffffffffffffffffffffffffffffffffffffffff1602179055508660008082015181600001556020820151816001019080519060200190620000e3929190620002bd565b50604082015181600201908051906020019062000102929190620002bd565b50606082015181600301556080820151816004015560a08201518160050160006101000a81548160ff02191690831515021790555090505085600f60016101000a81548173ffffffffffffffffffffffffffffffffffffffff021916908373ffffffffffffffffffffffffffffffffffffffff16021790555084601060006101000a81548173ffffffffffffffffffffffffffffffffffffffff021916908373ffffffffffffffffffffffffffffffffffffffff1602179055506000600f60006101000a81548160ff02191690831515021790555081600e8190555080600660006101000a81548173ffffffffffffffffffffffffffffffffffffffff021916908373ffffffffffffffffffffffffffffffffffffffff160217905550600f60019054906101000a900473ffffffffffffffffffffffffffffffffffffffff1673ffffffffffffffffffffffffffffffffffffffff1663c4d66de8306040518263ffffffff1660e01b81526004016200027c91906200084d565b600060405180830381600087803b1580156200029757600080fd5b505af1158015620002ac573d6000803e3d6000fd5b5050505050505050505050620008cf565b828054620002cb9062000899565b90600052602060002090601f016020900481019282620002ef57600085556200033b565b82601f106200030a57805160ff19168380011785556200033b565b828001600101855582156200033b579182015b828111156200033a5782518255916020019190600101906200031d565b5b5090506200034a91906200034e565b5090565b5b80821115620003695760008160009055506001016200034f565b5090565b6000604051905090565b600080fd5b600080fd5b600080fd5b6000601f19601f8301169050919050565b7f4e487b7100000000000000000000000000000000000000000000000000000000600052604160045260246000fd5b620003d18262000386565b810181811067ffffffffffffffff82111715620003f357620003f262000397565b5b80604052505050565b6000620004086200036d565b9050620004168282620003c6565b919050565b600080fd5b6000819050919050565b620004358162000420565b81146200044157600080fd5b50565b60008151905062000455816200042a565b92915050565b600080fd5b600080fd5b600067ffffffffffffffff82111562000483576200048262000397565b5b6200048e8262000386565b9050602081019050919050565b60005b83811015620004bb5780820151818401526020810190506200049e565b83811115620004cb576000848401525b50505050565b6000620004e8620004e28462000465565b620003fc565b90508281526020810184848401111562000507576200050662000460565b5b620005148482856200049b565b509392505050565b600082601f8301126200053457620005336200045b565b5b815162000546848260208601620004d1565b91505092915050565b60008115159050919050565b62000566816200054f565b81146200057257600080fd5b50565b60008151905062000586816200055b565b92915050565b600060c08284031215620005a557620005a462000381565b5b620005b160c0620003fc565b90506000620005c38482850162000444565b600083015250602082015167ffffffffffffffff811115620005ea57620005e96200041b565b5b620005f8848285016200051c565b602083015250604082015167ffffffffffffffff8111156200061f576200061e6200041b565b5b6200062d848285016200051c565b6040830152506060620006438482850162000444565b6060830152506080620006598482850162000444565b60808301525060a06200066f8482850162000575565b60a08301525092915050565b600073ffffffffffffffffffffffffffffffffffffffff82169050919050565b6000620006a8826200067b565b9050919050565b6000620006bc826200069b565b9050919050565b620006ce81620006af565b8114620006da57600080fd5b50565b600081519050620006ee81620006c3565b92915050565b600062000701826200069b565b9050919050565b6200071381620006f4565b81146200071f57600080fd5b50565b600081519050620007338162000708565b92915050565b62000744816200069b565b81146200075057600080fd5b50565b600081519050620007648162000739565b92915050565b600080600080600080600060e0888a0312156200078c576200078b62000377565b5b600088015167ffffffffffffffff811115620007ad57620007ac6200037c565b5b620007bb8a828b016200058c565b9750506020620007ce8a828b01620006dd565b9650506040620007e18a828b0162000722565b9550506060620007f48a828b0162000753565b9450506080620008078a828b0162000753565b93505060a06200081a8a828b0162000444565b92505060c06200082d8a828b0162000753565b91505092959891949750929550565b62000847816200069b565b82525050565b60006020820190506200086460008301846200083c565b92915050565b7f4e487b7100000000000000000000000000000000000000000000000000000000600052602260045260246000fd5b60006002820490506001821680620008b257607f821691505b60208210811415620008c957620008c86200086a565b5b50919050565b612d6980620008df6000396000f3fe608060405234801561001057600080fd5b50600436106101215760003560e01c80635ab8f661116100ad578063b996c17011610071578063b996c170146102e6578063de29278914610304578063df15c37e14610322578063e04b1c0c14610340578063e29859e51461035e57610121565b80635ab8f66114610242578063822023961461025e57806386852dca1461028e5780639baec8b9146102ac578063b976181b146102ca57610121565b8063273ffe86116100f4578063273ffe861461019c57806330a56347146101b857806337349a7d146101d65780634e69d560146101f4578063521b0dcc1461021257610121565b806306a49fce1461012657806311174a29146101445780631ca577141461016257806324fd983c14610180575b600080fd5b61012e61037c565b60405161013b91906118da565b60405180910390f35b61014c610509565b604051610159919061190b565b60405180910390f35b61016a610513565b604051610177919061190b565b60405180910390f35b61019a60048036038101906101959190611a9b565b61051d565b005b6101b660048036038101906101b19190611bcc565b6106e1565b005b6101c0610969565b6040516101cd919061190b565b60405180910390f35b6101de610973565b6040516101eb9190611c56565b60405180910390f35b6101fc610a2d565b6040516102099190611ce8565b60405180910390f35b61022c60048036038101906102279190611d2f565b610a62565b6040516102399190611d77565b60405180910390f35b61025c60048036038101906102579190611e5a565b610b07565b005b61027860048036038101906102739190611edd565b610cdd565b6040516102859190611f61565b60405180910390f35b610296610e38565b6040516102a39190612022565b60405180910390f35b6102b4610faf565b6040516102c19190611c56565b60405180910390f35b6102e460048036038101906102df9190612148565b611069565b005b6102ee6111e7565b6040516102fb91906121f0565b60405180910390f35b61030c61120d565b60405161031991906122ba565b60405180910390f35b61032a611430565b60405161033791906122ba565b60405180910390f35b6103486114de565b6040516103559190611c56565b60405180910390f35b610366611508565b6040516103739190611d77565b60405180910390f35b60606007805480602002602001604051908101604052809291908181526020016000905b828210156105005783829060005260206000209060030201604051806060016040529081600082015481526020016001820180546103dd9061230b565b80601f01602080910402602001604051908101604052809291908181526020018280546104099061230b565b80156104565780601f1061042b57610100808354040283529160200191610456565b820191906000526020600020905b81548152906001019060200180831161043957829003601f168201915b5050505050815260200160028201805461046f9061230b565b80601f016020809104026020016040519081016040528092919081815260200182805461049b9061230b565b80156104e85780601f106104bd576101008083540402835291602001916104e8565b820191906000526020600020905b8154815290600101906020018083116104cb57829003601f168201915b505050505081525050815260200190600101906103a0565b50505050905090565b6000600d54905090565b6000600e54905090565b600c60009054906101000a900473ffffffffffffffffffffffffffffffffffffffff1673ffffffffffffffffffffffffffffffffffffffff163373ffffffffffffffffffffffffffffffffffffffff16146105ad576040517f08c379a00000000000000000000000000000000000000000000000000000000081526004016105a4906123c0565b60405180910390fd5b600160028111156105c1576105c0611c71565b5b6105c9610a2d565b60028111156105db576105da611c71565b5b1461061b576040517f08c379a000000000000000000000000000000000000000000000000000000000815260040161061290612452565b60405180910390fd5b60006007805490509050808210610667576040517f08c379a000000000000000000000000000000000000000000000000000000000815260040161065e906124be565b60405180910390fd5b836007838154811061067c5761067b6124de565b5b906000526020600020906003020160010190805190602001906106a09291906115c6565b5082600783815481106106b6576106b56124de565b5b906000526020600020906003020160020190805190602001906106da9291906115c6565b5050505050565b600c60009054906101000a900473ffffffffffffffffffffffffffffffffffffffff1673ffffffffffffffffffffffffffffffffffffffff163373ffffffffffffffffffffffffffffffffffffffff1614610771576040517f08c379a0000000000000000000000000000000000000000000000000000000008152600401610768906123c0565b60405180910390fd5b60006001600a54610782919061253c565b90508082600001818152505060078290806001815401808255809150506001900390600052602060002090600302016000909190919091506000820151816000015560208201518160010190805190602001906107e09291906115c6565b5060408201518160020190805190602001906107fd9291906115c6565b505050600f60019054906101000a900473ffffffffffffffffffffffffffffffffffffffff1673ffffffffffffffffffffffffffffffffffffffff1663e844d09783600001516040518263ffffffff1660e01b815260040161085f919061190b565b600060405180830381600087803b15801561087957600080fd5b505af115801561088d573d6000803e3d6000fd5b505050508160096000846000015181526020019081526020016000206000820151816000015560208201518160010190805190602001906108cf9291906115c6565b5060408201518160020190805190602001906108ec9291906115c6565b50905050600a600081548092919061090390612592565b91905055507f4d9dd414a40890e16b7bd0ea98bdf9d5b55c3d20cfe4b18febda0d60fb32a60c30600f60019054906101000a900473ffffffffffffffffffffffffffffffffffffffff168460405161095d939291906125db565b60405180910390a15050565b6000600a54905090565b6000600b60009054906101000a900473ffffffffffffffffffffffffffffffffffffffff1673ffffffffffffffffffffffffffffffffffffffff163373ffffffffffffffffffffffffffffffffffffffff1614610a05576040517f08c379a00000000000000000000000000000000000000000000000000000000081526004016109fc9061268b565b60405180910390fd5b601060009054906101000a900473ffffffffffffffffffffffffffffffffffffffff16905090565b60008060030154421015610a445760019050610a5f565b600060040154421015610a5a5760009050610a5f565b600290505b90565b6000600f60019054906101000a900473ffffffffffffffffffffffffffffffffffffffff1673ffffffffffffffffffffffffffffffffffffffff1663521b0dcc836040518263ffffffff1660e01b8152600401610abf9190611c56565b602060405180830381865afa158015610adc573d6000803e3d6000fd5b505050506040513d601f19601f82011682018060405250810190610b0091906126c0565b9050919050565b60006002811115610b1b57610b1a611c71565b5b610b23610a2d565b6002811115610b3557610b34611c71565b5b14610b75576040517f08c379a0000000000000000000000000000000000000000000000000000000008152600401610b6c9061275f565b60405180910390fd5b610b7e33611521565b610bbd576040517f08c379a0000000000000000000000000000000000000000000000000000000008152600401610bb4906127cb565b60405180910390fd5b600f60019054906101000a900473ffffffffffffffffffffffffffffffffffffffff1673ffffffffffffffffffffffffffffffffffffffff1663a1818ac4338585856040518563ffffffff1660e01b8152600401610c1e94939291906127eb565b600060405180830381600087803b158015610c3857600080fd5b505af1158015610c4c573d6000803e3d6000fd5b50505050600d6000815480929190610c6390612592565b91905055507fd589db416dab4dff131e94610b2d02ce215ded85a2943a2ea59acd2153a85182600f60019054906101000a900473ffffffffffffffffffffffffffffffffffffffff166009600086815260200190815260200160002084604051610ccf9392919061295f565b60405180910390a150505050565b610ce561164c565b6009600083815260200190815260200160002060405180606001604052908160008201548152602001600182018054610d1d9061230b565b80601f0160208091040260200160405190810160405280929190818152602001828054610d499061230b565b8015610d965780601f10610d6b57610100808354040283529160200191610d96565b820191906000526020600020905b815481529060010190602001808311610d7957829003601f168201915b50505050508152602001600282018054610daf9061230b565b80601f0160208091040260200160405190810160405280929190818152602001828054610ddb9061230b565b8015610e285780601f10610dfd57610100808354040283529160200191610e28565b820191906000526020600020905b815481529060010190602001808311610e0b57829003601f168201915b5050505050815250509050919050565b610e4061166d565b60006040518060c001604052908160008201548152602001600182018054610e679061230b565b80601f0160208091040260200160405190810160405280929190818152602001828054610e939061230b565b8015610ee05780601f10610eb557610100808354040283529160200191610ee0565b820191906000526020600020905b815481529060010190602001808311610ec357829003601f168201915b50505050508152602001600282018054610ef99061230b565b80601f0160208091040260200160405190810160405280929190818152602001828054610f259061230b565b8015610f725780601f10610f4757610100808354040283529160200191610f72565b820191906000526020600020905b815481529060010190602001808311610f5557829003601f168201915b5050505050815260200160038201548152602001600482015481526020016005820160009054906101000a900460ff161515151581525050905090565b6000600b60009054906101000a900473ffffffffffffffffffffffffffffffffffffffff1673ffffffffffffffffffffffffffffffffffffffff163373ffffffffffffffffffffffffffffffffffffffff1614611041576040517f08c379a00000000000000000000000000000000000000000000000000000000081526004016110389061268b565b60405180910390fd5b600f60019054906101000a900473ffffffffffffffffffffffffffffffffffffffff16905090565b600b60009054906101000a900473ffffffffffffffffffffffffffffffffffffffff1673ffffffffffffffffffffffffffffffffffffffff163373ffffffffffffffffffffffffffffffffffffffff16146110f9576040517f08c379a00000000000000000000000000000000000000000000000000000000081526004016110f09061268b565b60405180910390fd5b6001600281111561110d5761110c611c71565b5b611115610a2d565b600281111561112757611126611c71565b5b14611167576040517f08c379a000000000000000000000000000000000000000000000000000000000815260040161115e90612a0f565b60405180910390fd5b806000808201518160000155602082015181600101908051906020019061118f9291906115c6565b5060408201518160020190805190602001906111ac9291906115c6565b50606082015181600301556080820151816004015560a08201518160050160006101000a81548160ff02191690831515021790555090505050565b600660009054906101000a900473ffffffffffffffffffffffffffffffffffffffff1681565b606060028081111561122257611221611c71565b5b61122a610a2d565b600281111561123c5761123b611c71565b5b1461127c576040517f08c379a000000000000000000000000000000000000000000000000000000000815260040161127390612aa1565b60405180910390fd5b60001515600f60009054906101000a900460ff161515141561142257601060009054906101000a900473ffffffffffffffffffffffffffffffffffffffff1673ffffffffffffffffffffffffffffffffffffffff1663c8344a20600f60019054906101000a900473ffffffffffffffffffffffffffffffffffffffff16600d546040518363ffffffff1660e01b8152600401611319929190612ae2565b6000604051808303816000875af1158015611338573d6000803e3d6000fd5b505050506040513d6000823e3d601f19601f820116820180604052508101906113619190612bb7565b600890805190602001906113769291906116a5565b506001600f60006101000a81548160ff0219169083151502179055507f28e5f582afeee46fd13ea548ad814f45b1d4a5159990336d5e66deb48a960e4c60086040516113c29190612ca5565b60405180910390a1600880548060200260200160405190810160405280929190818152602001828054801561141657602002820191906000526020600020905b815481526020019060010190808311611402575b5050505050905061142d565b61142a611430565b90505b90565b606060011515600f60009054906101000a900460ff16151514611488576040517f08c379a000000000000000000000000000000000000000000000000000000000815260040161147f90612d13565b60405180910390fd5b60088054806020026020016040519081016040528092919081815260200182805480156114d457602002820191906000526020600020905b8154815260200190600101908083116114c0575b5050505050905090565b6000600b60009054906101000a900473ffffffffffffffffffffffffffffffffffffffff16905090565b60008060050160009054906101000a900460ff16905090565b6000600660009054906101000a900473ffffffffffffffffffffffffffffffffffffffff1673ffffffffffffffffffffffffffffffffffffffff166314bde88e836040518263ffffffff1660e01b815260040161157e9190611c56565b602060405180830381865afa15801561159b573d6000803e3d6000fd5b505050506040513d601f19601f820116820180604052508101906115bf91906126c0565b9050919050565b8280546115d29061230b565b90600052602060002090601f0160209004810192826115f4576000855561163b565b82601f1061160d57805160ff191683800117855561163b565b8280016001018555821561163b579182015b8281111561163a57825182559160200191906001019061161f565b5b50905061164891906116f2565b5090565b60405180606001604052806000815260200160608152602001606081525090565b6040518060c0016040528060008152602001606081526020016060815260200160008152602001600081526020016000151581525090565b8280548282559060005260206000209081019282156116e1579160200282015b828111156116e05782518255916020019190600101906116c5565b5b5090506116ee91906116f2565b5090565b5b8082111561170b5760008160009055506001016116f3565b5090565b600081519050919050565b600082825260208201905092915050565b6000819050602082019050919050565b6000819050919050565b61174e8161173b565b82525050565b600081519050919050565b600082825260208201905092915050565b60005b8381101561178e578082015181840152602081019050611773565b8381111561179d576000848401525b50505050565b6000601f19601f8301169050919050565b60006117bf82611754565b6117c9818561175f565b93506117d9818560208601611770565b6117e2816117a3565b840191505092915050565b60006060830160008301516118056000860182611745565b506020830151848203602086015261181d82826117b4565b9150506040830151848203604086015261183782826117b4565b9150508091505092915050565b600061185083836117ed565b905092915050565b6000602082019050919050565b60006118708261170f565b61187a818561171a565b93508360208202850161188c8561172b565b8060005b858110156118c857848403895281516118a98582611844565b94506118b483611858565b925060208a01995050600181019050611890565b50829750879550505050505092915050565b600060208201905081810360008301526118f48184611865565b905092915050565b6119058161173b565b82525050565b600060208201905061192060008301846118fc565b92915050565b6000604051905090565b600080fd5b600080fd5b600080fd5b600080fd5b7f4e487b7100000000000000000000000000000000000000000000000000000000600052604160045260246000fd5b61197c826117a3565b810181811067ffffffffffffffff8211171561199b5761199a611944565b5b80604052505050565b60006119ae611926565b90506119ba8282611973565b919050565b600067ffffffffffffffff8211156119da576119d9611944565b5b6119e3826117a3565b9050602081019050919050565b82818337600083830152505050565b6000611a12611a0d846119bf565b6119a4565b905082815260208101848484011115611a2e57611a2d61193f565b5b611a398482856119f0565b509392505050565b600082601f830112611a5657611a5561193a565b5b8135611a668482602086016119ff565b91505092915050565b611a788161173b565b8114611a8357600080fd5b50565b600081359050611a9581611a6f565b92915050565b600080600060608486031215611ab457611ab3611930565b5b600084013567ffffffffffffffff811115611ad257611ad1611935565b5b611ade86828701611a41565b935050602084013567ffffffffffffffff811115611aff57611afe611935565b5b611b0b86828701611a41565b9250506040611b1c86828701611a86565b9150509250925092565b600080fd5b600080fd5b600060608284031215611b4657611b45611b26565b5b611b5060606119a4565b90506000611b6084828501611a86565b600083015250602082013567ffffffffffffffff811115611b8457611b83611b2b565b5b611b9084828501611a41565b602083015250604082013567ffffffffffffffff811115611bb457611bb3611b2b565b5b611bc084828501611a41565b60408301525092915050565b600060208284031215611be257611be1611930565b5b600082013567ffffffffffffffff811115611c0057611bff611935565b5b611c0c84828501611b30565b91505092915050565b600073ffffffffffffffffffffffffffffffffffffffff82169050919050565b6000611c4082611c15565b9050919050565b611c5081611c35565b82525050565b6000602082019050611c6b6000830184611c47565b92915050565b7f4e487b7100000000000000000000000000000000000000000000000000000000600052602160045260246000fd5b60038110611cb157611cb0611c71565b5b50565b6000819050611cc282611ca0565b919050565b6000611cd282611cb4565b9050919050565b611ce281611cc7565b82525050565b6000602082019050611cfd6000830184611cd9565b92915050565b611d0c81611c35565b8114611d1757600080fd5b50565b600081359050611d2981611d03565b92915050565b600060208284031215611d4557611d44611930565b5b6000611d5384828501611d1a565b91505092915050565b60008115159050919050565b611d7181611d5c565b82525050565b6000602082019050611d8c6000830184611d68565b92915050565b600067ffffffffffffffff821115611dad57611dac611944565b5b602082029050602081019050919050565b600080fd5b6000611dd6611dd184611d92565b6119a4565b90508083825260208201905060208402830185811115611df957611df8611dbe565b5b835b81811015611e225780611e0e8882611a86565b845260208401935050602081019050611dfb565b5050509392505050565b600082601f830112611e4157611e4061193a565b5b8135611e51848260208601611dc3565b91505092915050565b60008060008060808587031215611e7457611e73611930565b5b6000611e8287828801611a86565b9450506020611e9387828801611a86565b9350506040611ea487828801611a86565b925050606085013567ffffffffffffffff811115611ec557611ec4611935565b5b611ed187828801611e2c565b91505092959194509250565b600060208284031215611ef357611ef2611930565b5b6000611f0184828501611a86565b91505092915050565b6000606083016000830151611f226000860182611745565b5060208301518482036020860152611f3a82826117b4565b91505060408301518482036040860152611f5482826117b4565b9150508091505092915050565b60006020820190508181036000830152611f7b8184611f0a565b905092915050565b611f8c81611d5c565b82525050565b600060c083016000830151611faa6000860182611745565b5060208301518482036020860152611fc282826117b4565b91505060408301518482036040860152611fdc82826117b4565b9150506060830151611ff16060860182611745565b5060808301516120046080860182611745565b5060a083015161201760a0860182611f83565b508091505092915050565b6000602082019050818103600083015261203c8184611f92565b905092915050565b61204d81611d5c565b811461205857600080fd5b50565b60008135905061206a81612044565b92915050565b600060c0828403121561208657612085611b26565b5b61209060c06119a4565b905060006120a084828501611a86565b600083015250602082013567ffffffffffffffff8111156120c4576120c3611b2b565b5b6120d084828501611a41565b602083015250604082013567ffffffffffffffff8111156120f4576120f3611b2b565b5b61210084828501611a41565b604083015250606061211484828501611a86565b606083015250608061212884828501611a86565b60808301525060a061213c8482850161205b565b60a08301525092915050565b60006020828403121561215e5761215d611930565b5b600082013567ffffffffffffffff81111561217c5761217b611935565b5b61218884828501612070565b91505092915050565b6000819050919050565b60006121b66121b16121ac84611c15565b612191565b611c15565b9050919050565b60006121c88261219b565b9050919050565b60006121da826121bd565b9050919050565b6121ea816121cf565b82525050565b600060208201905061220560008301846121e1565b92915050565b600081519050919050565b600082825260208201905092915050565b6000819050602082019050919050565b60006122438383611745565b60208301905092915050565b6000602082019050919050565b60006122678261220b565b6122718185612216565b935061227c83612227565b8060005b838110156122ad5781516122948882612237565b975061229f8361224f565b925050600181019050612280565b5085935050505092915050565b600060208201905081810360008301526122d4818461225c565b905092915050565b7f4e487b7100000000000000000000000000000000000000000000000000000000600052602260045260246000fd5b6000600282049050600182168061232357607f821691505b60208210811415612337576123366122dc565b5b50919050565b600082825260208201905092915050565b7f4d7573742062652063616c6c65642066726f6d2074686520656c656374696f6e60008201527f206f7267616e697a657220636f6e747261637400000000000000000000000000602082015250565b60006123aa60338361233d565b91506123b58261234e565b604082019050919050565b600060208201905081810360008301526123d98161239d565b9050919050565b7f43616e6e6f74206164642063616e6469646174657320616674657220656c656360008201527f74696f6e20686173207374617274656400000000000000000000000000000000602082015250565b600061243c60308361233d565b9150612447826123e0565b604082019050919050565b6000602082019050818103600083015261246b8161242f565b9050919050565b7f43616e646964617465206e6f7420666f756e6400000000000000000000000000600082015250565b60006124a860138361233d565b91506124b382612472565b602082019050919050565b600060208201905081810360008301526124d78161249b565b9050919050565b7f4e487b7100000000000000000000000000000000000000000000000000000000600052603260045260246000fd5b7f4e487b7100000000000000000000000000000000000000000000000000000000600052601160045260246000fd5b60006125478261173b565b91506125528361173b565b9250827fffffffffffffffffffffffffffffffffffffffffffffffffffffffffffffffff038211156125875761258661250d565b5b828201905092915050565b600061259d8261173b565b91507fffffffffffffffffffffffffffffffffffffffffffffffffffffffffffffffff8214156125d0576125cf61250d565b5b600182019050919050565b60006060820190506125f06000830186611c47565b6125fd6020830185611c47565b818103604083015261260f8184611f0a565b9050949350505050565b7f43616c6c6572206d7573742062652074686520656c656374696f6e206f72676160008201527f6e697a6572000000000000000000000000000000000000000000000000000000602082015250565b600061267560258361233d565b915061268082612619565b604082019050919050565b600060208201905081810360008301526126a481612668565b9050919050565b6000815190506126ba81612044565b92915050565b6000602082840312156126d6576126d5611930565b5b60006126e4848285016126ab565b91505092915050565b7f456c656374696f6e206e6565647320746f2062652061637469766520746f207660008201527f6f74650000000000000000000000000000000000000000000000000000000000602082015250565b600061274960238361233d565b9150612754826126ed565b604082019050919050565b600060208201905081810360008301526127788161273c565b9050919050565b7f55736572204e6f742041757468656e7469636174656400000000000000000000600082015250565b60006127b560168361233d565b91506127c08261277f565b602082019050919050565b600060208201905081810360008301526127e4816127a8565b9050919050565b60006080820190506128006000830187611c47565b61280d60208301866118fc565b61281a60408301856118fc565b818103606083015261282c818461225c565b905095945050505050565b60008160001c9050919050565b6000819050919050565b600061286161285c83612837565b612844565b9050919050565b60008190508160005260206000209050919050565b6000815461288a8161230b565b612894818661175f565b945060018216600081146128af57600181146128c1576128f4565b60ff19831686526020860193506128f4565b6128ca85612868565b60005b838110156128ec578154818901526001820191506020810190506128cd565b808801955050505b50505092915050565b60006060830160008084015490506129148161284e565b6129216000870182611745565b50600184018583036020870152612938838261287d565b925050600284018583036040870152612951838261287d565b925050819250505092915050565b60006060820190506129746000830186611c47565b818103602083015261298681856128fd565b905061299560408301846118fc565b949350505050565b7f43616e6e6f742075706461746520656c656374696f6e20696e666f206166746560008201527f7220656c656374696f6e20686173207374617274656400000000000000000000602082015250565b60006129f960368361233d565b9150612a048261299d565b604082019050919050565b60006020820190508181036000830152612a28816129ec565b9050919050565b7f526573756c747320617265206465636c61726564206f6e6c792061667465722060008201527f74686520656c656374696f6e20656e6473000000000000000000000000000000602082015250565b6000612a8b60318361233d565b9150612a9682612a2f565b604082019050919050565b60006020820190508181036000830152612aba81612a7e565b9050919050565b6000612acc826121bd565b9050919050565b612adc81612ac1565b82525050565b6000604082019050612af76000830185612ad3565b612b0460208301846118fc565b9392505050565b600081519050612b1a81611a6f565b92915050565b6000612b33612b2e84611d92565b6119a4565b90508083825260208201905060208402830185811115612b5657612b55611dbe565b5b835b81811015612b7f5780612b6b8882612b0b565b845260208401935050602081019050612b58565b5050509392505050565b600082601f830112612b9e57612b9d61193a565b5b8151612bae848260208601612b20565b91505092915050565b600060208284031215612bcd57612bcc611930565b5b600082015167ffffffffffffffff811115612beb57612bea611935565b5b612bf784828501612b89565b91505092915050565b600081549050919050565b60008190508160005260206000209050919050565b6000612c2c825461284e565b9050919050565b6000600182019050919050565b6000612c4b82612c00565b612c558185612216565b9350612c6083612c0b565b8060005b83811015612c9857612c7582612c20565b612c7f8882612237565b9750612c8a83612c33565b925050600181019050612c64565b5085935050505092915050565b60006020820190508181036000830152612cbf8184612c40565b905092915050565b7f526573756c7473206172656e2774206465636c61726564207965740000000000600082015250565b6000612cfd601b8361233d565b9150612d0882612cc7565b602082019050919050565b60006020820190508181036000830152612d2c81612cf0565b905091905056fea26469706673582212203f236b64b2475429eb0f65dfe7917b802b9a436571d6e1490c3d3c973f2572b564736f6c634300080a0033",
  "linkReferences": {},
  "deployedLinkReferences": {}
}