{
  "_format": "hh-sol-artifact-1",
  "contractName": "RankedQuadraticResults",
  "sourceName": "contracts/facets/votingApp/resultCalculator/RankedQuadraticResults.sol",
  "abi": [
    {
      "inputs": [
        {
          "internalType": "contract Ballot",
          "name": "_ballot",
          "type": "address"
        },
        {
          "internalType": "uint256",
          "name": "_voterCount",
          "type": "uint256"
        }
      ],
      "name": "getResult",
      "outputs": [
        {
          "internalType": "uint256[]",
          "name": "",
          "type": "uint256[]"
        }
      ],
      "stateMutability": "nonpayable",
      "type": "function"
    }
  ],
  "bytecode": "0x608060405234801561001057600080fd5b506105c1806100206000396000f3fe608060405234801561001057600080fd5b506004361061002b5760003560e01c8063c8344a2014610030575b600080fd5b61004a60048036038101906100459190610334565b610060565b6040516100579190610432565b60405180910390f35b60606000808473ffffffffffffffffffffffffffffffffffffffff166330a563476040518163ffffffff1660e01b8152600401602060405180830381865afa1580156100b0573d6000803e3d6000fd5b505050506040513d601f19601f820116820180604052508101906100d49190610469565b905060005b818110156101ef5760008673ffffffffffffffffffffffffffffffffffffffff1663de2e19a08360016040518363ffffffff1660e01b815260040161011f9291906104ea565b602060405180830381865afa15801561013c573d6000803e3d6000fd5b505050506040513d601f19601f820116820180604052508101906101609190610469565b9050838111156101a857600080610177919061024b565b80935060008290806001815401808255809150506001900390600052602060002001600090919091909150556101db565b838114156101da5760008290806001815401808255809150506001900390600052602060002001600090919091909150555b5b5080806101e790610542565b9150506100d9565b50600080548060200260200160405190810160405280929190818152602001828054801561023c57602002820191906000526020600020905b815481526020019060010190808311610228575b50505050509250505092915050565b5080546000825590600052602060002090810190610269919061026c565b50565b5b8082111561028557600081600090555060010161026d565b5090565b600080fd5b600073ffffffffffffffffffffffffffffffffffffffff82169050919050565b60006102b98261028e565b9050919050565b60006102cb826102ae565b9050919050565b6102db816102c0565b81146102e657600080fd5b50565b6000813590506102f8816102d2565b92915050565b6000819050919050565b610311816102fe565b811461031c57600080fd5b50565b60008135905061032e81610308565b92915050565b6000806040838503121561034b5761034a610289565b5b6000610359858286016102e9565b925050602061036a8582860161031f565b9150509250929050565b600081519050919050565b600082825260208201905092915050565b6000819050602082019050919050565b6103a9816102fe565b82525050565b60006103bb83836103a0565b60208301905092915050565b6000602082019050919050565b60006103df82610374565b6103e9818561037f565b93506103f483610390565b8060005b8381101561042557815161040c88826103af565b9750610417836103c7565b9250506001810190506103f8565b5085935050505092915050565b6000602082019050818103600083015261044c81846103d4565b905092915050565b60008151905061046381610308565b92915050565b60006020828403121561047f5761047e610289565b5b600061048d84828501610454565b91505092915050565b61049f816102fe565b82525050565b6000819050919050565b6000819050919050565b60006104d46104cf6104ca846104a5565b6104af565b6102fe565b9050919050565b6104e4816104b9565b82525050565b60006040820190506104ff6000830185610496565b61050c60208301846104db565b9392505050565b7f4e487b7100000000000000000000000000000000000000000000000000000000600052601160045260246000fd5b600061054d826102fe565b91507fffffffffffffffffffffffffffffffffffffffffffffffffffffffffffffffff8214156105805761057f610513565b5b60018201905091905056fea2646970667358221220ba580d79f3b218501117a8bec4a23134c482cd993e2b146531cdbf6d718ddbac64736f6c634300080a0033",
  "linkReferences": {},
  "deployedLinkReferences": {}
}