{
  "_format": "hh-sol-artifact-1",
  "contractName": "RankedQuadraticBallot",
  "sourceName": "contracts/facets/votingApp/ballot/RankedQuadraticBallot.sol",
  "abi": [
    {
      "inputs": [
        {
          "internalType": "uint256",
          "name": "_contractType",
          "type": "uint256"
        }
      ],
      "stateMutability": "nonpayable",
      "type": "constructor"
    },
    {
      "inputs": [],
      "name": "AlreadyVoted",
      "type": "error"
    },
    {
      "inputs": [
        {
          "internalType": "uint256",
          "name": "_candidate",
          "type": "uint256"
        }
      ],
      "name": "addCandidate",
      "outputs": [],
      "stateMutability": "nonpayable",
      "type": "function"
    },
    {
      "inputs": [],
      "name": "contractType",
      "outputs": [
        {
          "internalType": "uint256",
          "name": "",
          "type": "uint256"
        }
      ],
      "stateMutability": "view",
      "type": "function"
    },
    {
      "inputs": [],
      "name": "getCandidateCount",
      "outputs": [
        {
          "internalType": "uint256",
          "name": "",
          "type": "uint256"
        }
      ],
      "stateMutability": "view",
      "type": "function"
    },
    {
      "inputs": [],
      "name": "getCandidates",
      "outputs": [
        {
          "internalType": "uint256[]",
          "name": "",
          "type": "uint256[]"
        }
      ],
      "stateMutability": "view",
      "type": "function"
    },
    {
      "inputs": [],
      "name": "getVoteArr",
      "outputs": [
        {
          "internalType": "uint256[][]",
          "name": "votes",
          "type": "uint256[][]"
        }
      ],
      "stateMutability": "pure",
      "type": "function"
    },
    {
      "inputs": [
        {
          "internalType": "uint256",
          "name": "_candidate",
          "type": "uint256"
        },
        {
          "internalType": "uint256",
          "name": "_weight",
          "type": "uint256"
        }
      ],
      "name": "getVoteCount",
      "outputs": [
        {
          "internalType": "uint256",
          "name": "",
          "type": "uint256"
        }
      ],
      "stateMutability": "view",
      "type": "function"
    },
    {
      "inputs": [
        {
          "internalType": "address",
          "name": "_voter",
          "type": "address"
        }
      ],
      "name": "getVoteStatus",
      "outputs": [
        {
          "internalType": "bool",
          "name": "",
          "type": "bool"
        }
      ],
      "stateMutability": "view",
      "type": "function"
    },
    {
      "inputs": [
        {
          "internalType": "address",
          "name": "_contractOwner",
          "type": "address"
        }
      ],
      "name": "initialize",
      "outputs": [],
      "stateMutability": "nonpayable",
      "type": "function"
    },
    {
      "inputs": [
        {
          "internalType": "address",
          "name": "_voter",
          "type": "address"
        },
        {
          "internalType": "uint256",
          "name": "_candidate",
          "type": "uint256"
        },
        {
          "internalType": "uint256",
          "name": "_score",
          "type": "uint256"
        },
        {
          "internalType": "uint256[]",
          "name": "voteArr",
          "type": "uint256[]"
        }
      ],
      "name": "vote",
      "outputs": [],
      "stateMutability": "nonpayable",
      "type": "function"
    }
  ],
  "bytecode": "0x60a06040523480156200001157600080fd5b506040516200126538038062001265833981810160405281019062000037919062000086565b806080818152505050620000b8565b600080fd5b6000819050919050565b62000060816200004b565b81146200006c57600080fd5b50565b600081519050620000808162000055565b92915050565b6000602082840312156200009f576200009e62000046565b5b6000620000af848285016200006f565b91505092915050565b60805161118a620000db600039600081816103de0152610616015261118a6000f3fe608060405234801561001057600080fd5b50600436106100935760003560e01c8063afa5240811610066578063afa5240814610120578063c4d66de81461013e578063cb2ef6f71461015a578063de2e19a014610178578063e844d097146101a857610093565b806306a49fce1461009857806330a56347146100b6578063521b0dcc146100d4578063a1818ac414610104575b600080fd5b6100a06101c4565b6040516100ad919061082d565b60405180910390f35b6100be61021c565b6040516100cb919061085e565b60405180910390f35b6100ee60048036038101906100e991906108eb565b610228565b6040516100fb9190610933565b60405180910390f35b61011e60048036038101906101199190610ad3565b61027e565b005b61012861055a565b6040516101359190610c87565b60405180910390f35b610158600480360381019061015391906108eb565b61055f565b005b610162610614565b60405161016f919061085e565b60405180910390f35b610192600480360381019061018d9190610ca9565b610638565b60405161019f919061085e565b60405180910390f35b6101c260048036038101906101bd9190610ce9565b610656565b005b6060600080548060200260200160405190810160405280929190818152602001828054801561021257602002820191906000526020600020905b8154815260200190600101908083116101fe575b5050505050905090565b60008080549050905090565b6000600160008373ffffffffffffffffffffffffffffffffffffffff1673ffffffffffffffffffffffffffffffffffffffff16815260200190815260200160002060009054906101000a900460ff169050919050565b600260009054906101000a900473ffffffffffffffffffffffffffffffffffffffff1673ffffffffffffffffffffffffffffffffffffffff163373ffffffffffffffffffffffffffffffffffffffff161461030e576040517f08c379a000000000000000000000000000000000000000000000000000000000815260040161030590610d99565b60405180910390fd5b600160008573ffffffffffffffffffffffffffffffffffffffff1673ffffffffffffffffffffffffffffffffffffffff16815260200190815260200160002060009054906101000a900460ff1615610392576040517f7c9a1cf900000000000000000000000000000000000000000000000000000000815260040160405180910390fd5b6000805490508151146103da576040517f08c379a00000000000000000000000000000000000000000000000000000000081526004016103d190610e05565b60405180910390fd5b60007f000000000000000000000000000000000000000000000000000000000000000014156104505761040c81610682565b61044b576040517f08c379a000000000000000000000000000000000000000000000000000000000815260040161044290610e71565b60405180910390fd5b610499565b6104598161070a565b610498576040517f08c379a000000000000000000000000000000000000000000000000000000000815260040161048f90610edd565b60405180910390fd5b5b60005b81518110156104fc578181815181106104b8576104b7610efd565b5b60200260200101516003600083815260200190815260200160002060008282546104e29190610f5b565b9250508190555080806104f490610fb1565b91505061049c565b5060018060008673ffffffffffffffffffffffffffffffffffffffff1673ffffffffffffffffffffffffffffffffffffffff16815260200190815260200160002060006101000a81548160ff02191690831515021790555050505050565b606090565b60001515600260149054906101000a900460ff161515146105b5576040517f08c379a00000000000000000000000000000000000000000000000000000000081526004016105ac90611046565b60405180910390fd5b80600260006101000a81548173ffffffffffffffffffffffffffffffffffffffff021916908373ffffffffffffffffffffffffffffffffffffffff1602179055506001600260146101000a81548160ff02191690831515021790555050565b7f000000000000000000000000000000000000000000000000000000000000000081565b60006003600084815260200190815260200160002054905092915050565b600081908060018154018082558091505060019003906000526020600020016000909190919091505550565b60008060008054905090506000600260018361069e9190610f5b565b836106a99190611066565b6106b391906110ef565b905060005b84518110156106fc578481815181106106d4576106d3610efd565b5b6020026020010151826106e79190611120565b915080806106f490610fb1565b9150506106b8565b506000811492505050919050565b6000806064905060005b8351811015610758578381815181106107305761072f610efd565b5b6020026020010151826107439190611120565b9150808061075090610fb1565b915050610714565b5060008114915050919050565b600081519050919050565b600082825260208201905092915050565b6000819050602082019050919050565b6000819050919050565b6107a481610791565b82525050565b60006107b6838361079b565b60208301905092915050565b6000602082019050919050565b60006107da82610765565b6107e48185610770565b93506107ef83610781565b8060005b8381101561082057815161080788826107aa565b9750610812836107c2565b9250506001810190506107f3565b5085935050505092915050565b6000602082019050818103600083015261084781846107cf565b905092915050565b61085881610791565b82525050565b6000602082019050610873600083018461084f565b92915050565b6000604051905090565b600080fd5b600080fd5b600073ffffffffffffffffffffffffffffffffffffffff82169050919050565b60006108b88261088d565b9050919050565b6108c8816108ad565b81146108d357600080fd5b50565b6000813590506108e5816108bf565b92915050565b60006020828403121561090157610900610883565b5b600061090f848285016108d6565b91505092915050565b60008115159050919050565b61092d81610918565b82525050565b60006020820190506109486000830184610924565b92915050565b61095781610791565b811461096257600080fd5b50565b6000813590506109748161094e565b92915050565b600080fd5b6000601f19601f8301169050919050565b7f4e487b7100000000000000000000000000000000000000000000000000000000600052604160045260246000fd5b6109c88261097f565b810181811067ffffffffffffffff821117156109e7576109e6610990565b5b80604052505050565b60006109fa610879565b9050610a0682826109bf565b919050565b600067ffffffffffffffff821115610a2657610a25610990565b5b602082029050602081019050919050565b600080fd5b6000610a4f610a4a84610a0b565b6109f0565b90508083825260208201905060208402830185811115610a7257610a71610a37565b5b835b81811015610a9b5780610a878882610965565b845260208401935050602081019050610a74565b5050509392505050565b600082601f830112610aba57610ab961097a565b5b8135610aca848260208601610a3c565b91505092915050565b60008060008060808587031215610aed57610aec610883565b5b6000610afb878288016108d6565b9450506020610b0c87828801610965565b9350506040610b1d87828801610965565b925050606085013567ffffffffffffffff811115610b3e57610b3d610888565b5b610b4a87828801610aa5565b91505092959194509250565b600081519050919050565b600082825260208201905092915050565b6000819050602082019050919050565b600082825260208201905092915050565b6000610b9e82610765565b610ba88185610b82565b9350610bb383610781565b8060005b83811015610be4578151610bcb88826107aa565b9750610bd6836107c2565b925050600181019050610bb7565b5085935050505092915050565b6000610bfd8383610b93565b905092915050565b6000602082019050919050565b6000610c1d82610b56565b610c278185610b61565b935083602082028501610c3985610b72565b8060005b85811015610c755784840389528151610c568582610bf1565b9450610c6183610c05565b925060208a01995050600181019050610c3d565b50829750879550505050505092915050565b60006020820190508181036000830152610ca18184610c12565b905092915050565b60008060408385031215610cc057610cbf610883565b5b6000610cce85828601610965565b9250506020610cdf85828601610965565b9150509250929050565b600060208284031215610cff57610cfe610883565b5b6000610d0d84828501610965565b91505092915050565b600082825260208201905092915050565b7f4d7573742062652063616c6c65642066726f6d2074686520656c656374696f6e60008201527f206f7267616e697a657220636f6e747261637400000000000000000000000000602082015250565b6000610d83603383610d16565b9150610d8e82610d27565b604082019050919050565b60006020820190508181036000830152610db281610d76565b9050919050565b7f566f74657320446f6e74206d61746368207468652043616e6469646174657300600082015250565b6000610def601f83610d16565b9150610dfa82610db9565b602082019050919050565b60006020820190508181036000830152610e1e81610de2565b9050919050565b7f496e636f7272656374204372656469747320476976656e000000000000000000600082015250565b6000610e5b601783610d16565b9150610e6682610e25565b602082019050919050565b60006020820190508181036000830152610e8a81610e4e565b9050919050565b7f496e636f7272656374204372656469747320676976656e000000000000000000600082015250565b6000610ec7601783610d16565b9150610ed282610e91565b602082019050919050565b60006020820190508181036000830152610ef681610eba565b9050919050565b7f4e487b7100000000000000000000000000000000000000000000000000000000600052603260045260246000fd5b7f4e487b7100000000000000000000000000000000000000000000000000000000600052601160045260246000fd5b6000610f6682610791565b9150610f7183610791565b9250827fffffffffffffffffffffffffffffffffffffffffffffffffffffffffffffffff03821115610fa657610fa5610f2c565b5b828201905092915050565b6000610fbc82610791565b91507fffffffffffffffffffffffffffffffffffffffffffffffffffffffffffffffff821415610fef57610fee610f2c565b5b600182019050919050565b7f416c726561647920496e697469616c697a656400000000000000000000000000600082015250565b6000611030601383610d16565b915061103b82610ffa565b602082019050919050565b6000602082019050818103600083015261105f81611023565b9050919050565b600061107182610791565b915061107c83610791565b9250817fffffffffffffffffffffffffffffffffffffffffffffffffffffffffffffffff04831182151516156110b5576110b4610f2c565b5b828202905092915050565b7f4e487b7100000000000000000000000000000000000000000000000000000000600052601260045260246000fd5b60006110fa82610791565b915061110583610791565b925082611115576111146110c0565b5b828204905092915050565b600061112b82610791565b915061113683610791565b92508282101561114957611148610f2c565b5b82820390509291505056fea26469706673582212200354be4235a2e04791b6bba29b9caf05dadf53ef922bdb7fa9bfc3fcbb081da664736f6c634300080a0033",
  "linkReferences": {},
  "deployedLinkReferences": {}
}