{
  "_format": "hh-sol-artifact-1",
  "contractName": "Test1Facet",
  "sourceName": "contracts/facets/Test1Facet.sol",
  "abi": [
    {
      "inputs": [],
      "name": "getReqBallot",
      "outputs": [
        {
          "internalType": "contract Ballot",
          "name": "",
          "type": "address"
        }
      ],
      "stateMutability": "view",
      "type": "function"
    },
    {
      "inputs": [],
      "name": "getReqResult",
      "outputs": [
        {
          "internalType": "contract ResultCalculator",
          "name": "",
          "type": "address"
        }
      ],
      "stateMutability": "view",
      "type": "function"
    },
    {
      "inputs": [],
      "name": "setReqResult",
      "outputs": [],
      "stateMutability": "nonpayable",
      "type": "function"
    },
    {
      "inputs": [],
      "name": "test1facetAddress",
      "outputs": [
        {
          "components": [
            {
              "internalType": "address",
              "name": "diamond",
              "type": "address"
            }
          ],
          "internalType": "struct LibDiamond.AddressStorage",
          "name": "",
          "type": "tuple"
        }
      ],
      "stateMutability": "pure",
      "type": "function"
    },
    {
      "inputs": [],
      "name": "test1facetelection",
      "outputs": [
        {
          "components": [
            {
              "internalType": "contract Ballot",
              "name": "ballot",
              "type": "address"
            },
            {
              "internalType": "contract ResultCalculator",
              "name": "resultCalculator",
              "type": "address"
            },
            {
              "internalType": "contract Election",
              "name": "election",
              "type": "address"
            }
          ],
          "internalType": "struct LibDiamond.ElectionStorage",
          "name": "",
          "type": "tuple"
        }
      ],
      "stateMutability": "pure",
      "type": "function"
    }
  ],
  "bytecode": "0x608060405234801561001057600080fd5b506106bb806100206000396000f3fe608060405234801561001057600080fd5b50600436106100575760003560e01c80632b5d963a1461005c57806346d429931461007a57806365e5c206146100985780638d64898c146100a2578063d70ec4d0146100c0575b600080fd5b6100646100de565b60405161007191906104da565b60405180910390f35b610082610111565b60405161008f9190610532565b60405180910390f35b6100a0610187565b005b6100aa610220565b6040516100b7919061056e565b60405180910390f35b6100c8610253565b6040516100d5919061060a565b60405180910390f35b60006100e8610375565b60000160009054906101000a900473ffffffffffffffffffffffffffffffffffffffff16905090565b6101196103cf565b6101216103a2565b6040518060200160405290816000820160009054906101000a900473ffffffffffffffffffffffffffffffffffffffff1673ffffffffffffffffffffffffffffffffffffffff1673ffffffffffffffffffffffffffffffffffffffff1681525050905090565b61018f6103a2565b60000160009054906101000a900473ffffffffffffffffffffffffffffffffffffffff1673ffffffffffffffffffffffffffffffffffffffff1663a9dda9c760026040518263ffffffff1660e01b81526004016101ec919061066a565b600060405180830381600087803b15801561020657600080fd5b505af115801561021a573d6000803e3d6000fd5b50505050565b600061022a610375565b60010160009054906101000a900473ffffffffffffffffffffffffffffffffffffffff16905090565b61025b6103f8565b610263610375565b6040518060600160405290816000820160009054906101000a900473ffffffffffffffffffffffffffffffffffffffff1673ffffffffffffffffffffffffffffffffffffffff1673ffffffffffffffffffffffffffffffffffffffff1681526020016001820160009054906101000a900473ffffffffffffffffffffffffffffffffffffffff1673ffffffffffffffffffffffffffffffffffffffff1673ffffffffffffffffffffffffffffffffffffffff1681526020016002820160009054906101000a900473ffffffffffffffffffffffffffffffffffffffff1673ffffffffffffffffffffffffffffffffffffffff1673ffffffffffffffffffffffffffffffffffffffff1681525050905090565b6000807f5b43f313088137496832405d64cc708765db93c8144d82f7a7f806ac22d5603b90508091505090565b6000807fc20038518297e76c0e27a913ab03e5d4fd92b2579d428cf3b89f8c71add2acef90508091505090565b6040518060200160405280600073ffffffffffffffffffffffffffffffffffffffff1681525090565b6040518060600160405280600073ffffffffffffffffffffffffffffffffffffffff168152602001600073ffffffffffffffffffffffffffffffffffffffff168152602001600073ffffffffffffffffffffffffffffffffffffffff1681525090565b600073ffffffffffffffffffffffffffffffffffffffff82169050919050565b6000819050919050565b60006104a061049b6104968461045b565b61047b565b61045b565b9050919050565b60006104b282610485565b9050919050565b60006104c4826104a7565b9050919050565b6104d4816104b9565b82525050565b60006020820190506104ef60008301846104cb565b92915050565b60006105008261045b565b9050919050565b610510816104f5565b82525050565b60208201600082015161052c6000850182610507565b50505050565b60006020820190506105476000830184610516565b92915050565b6000610558826104a7565b9050919050565b6105688161054d565b82525050565b6000602082019050610583600083018461055f565b92915050565b610592816104b9565b82525050565b6105a18161054d565b82525050565b60006105b2826104a7565b9050919050565b6105c2816105a7565b82525050565b6060820160008201516105de6000850182610589565b5060208201516105f16020850182610598565b50604082015161060460408501826105b9565b50505050565b600060608201905061061f60008301846105c8565b92915050565b6000819050919050565b6000819050919050565b600061065461064f61064a84610625565b61047b565b61062f565b9050919050565b61066481610639565b82525050565b600060208201905061067f600083018461065b565b9291505056fea2646970667358221220464100379895a56a38dab66eb133758c0c973f23caad74fe1f2bd8aca9e6cfd564736f6c634300080a0033",
  "linkReferences": {},
  "deployedLinkReferences": {}
}