{
  "_format": "hh-sol-artifact-1",
  "contractName": "Authentication",
  "sourceName": "contracts/facets/Authentication.sol",
  "abi": [
    {
      "inputs": [
        {
          "components": [
            {
              "internalType": "uint256",
              "name": "organizerID",
              "type": "uint256"
            },
            {
              "internalType": "string",
              "name": "name",
              "type": "string"
            },
            {
              "internalType": "address",
              "name": "publicAddress",
              "type": "address"
            }
          ],
          "internalType": "struct ElectionOrganizer.OrganizerInfo",
          "name": "_organizerInfo",
          "type": "tuple"
        }
      ],
      "name": "createUser",
      "outputs": [],
      "stateMutability": "nonpayable",
      "type": "function"
    },
    {
      "inputs": [
        {
          "internalType": "address",
          "name": "_user",
          "type": "address"
        }
      ],
      "name": "getAuthStatus",
      "outputs": [
        {
          "internalType": "bool",
          "name": "",
          "type": "bool"
        }
      ],
      "stateMutability": "view",
      "type": "function"
    },
    {
      "inputs": [],
      "name": "getElectionOrganizerContract",
      "outputs": [
        {
          "internalType": "address",
          "name": "",
          "type": "address"
        }
      ],
      "stateMutability": "view",
      "type": "function"
    },
    {
      "inputs": [
        {
          "internalType": "address",
          "name": "_diamond",
          "type": "address"
        }
      ],
      "name": "init",
      "outputs": [],
      "stateMutability": "nonpayable",
      "type": "function"
    }
  ],
  "bytecode": "0x608060405234801561001057600080fd5b506108ea806100206000396000f3fe608060405234801561001057600080fd5b506004361061004c5760003560e01c806314bde88e1461005157806319ab453c14610081578063378d47e91461009d5780639b05e4b9146100bb575b600080fd5b61006b60048036038101906100669190610443565b6100d7565b604051610078919061048b565b60405180910390f35b61009b60048036038101906100969190610443565b61012c565b005b6100a561023c565b6040516100b291906104b5565b60405180910390f35b6100d560048036038101906100d091906106d6565b610266565b005b60008060008373ffffffffffffffffffffffffffffffffffffffff1673ffffffffffffffffffffffffffffffffffffffff16815260200190815260200160002060009054906101000a900460ff169050919050565b806101356103a4565b60000160006101000a81548173ffffffffffffffffffffffffffffffffffffffff021916908373ffffffffffffffffffffffffffffffffffffffff16021790555080600160006101000a81548173ffffffffffffffffffffffffffffffffffffffff021916908373ffffffffffffffffffffffffffffffffffffffff160217905550600160009054906101000a900473ffffffffffffffffffffffffffffffffffffffff1673ffffffffffffffffffffffffffffffffffffffff16631d43d8ed6040518163ffffffff1660e01b8152600401600060405180830381600087803b15801561022157600080fd5b505af1158015610235573d6000803e3d6000fd5b5050505050565b6000600160009054906101000a900473ffffffffffffffffffffffffffffffffffffffff16905090565b6000151561027782604001516100d7565b1515146102b9576040517f08c379a00000000000000000000000000000000000000000000000000000000081526004016102b09061077c565b60405180910390fd5b6001600080836040015173ffffffffffffffffffffffffffffffffffffffff1673ffffffffffffffffffffffffffffffffffffffff16815260200190815260200160002060006101000a81548160ff021916908315150217905550600160009054906101000a900473ffffffffffffffffffffffffffffffffffffffff1673ffffffffffffffffffffffffffffffffffffffff166315d4ffa0826040518263ffffffff1660e01b815260040161036f9190610892565b600060405180830381600087803b15801561038957600080fd5b505af115801561039d573d6000803e3d6000fd5b5050505050565b6000807fc20038518297e76c0e27a913ab03e5d4fd92b2579d428cf3b89f8c71add2acef90508091505090565b6000604051905090565b600080fd5b600080fd5b600073ffffffffffffffffffffffffffffffffffffffff82169050919050565b6000610410826103e5565b9050919050565b61042081610405565b811461042b57600080fd5b50565b60008135905061043d81610417565b92915050565b600060208284031215610459576104586103db565b5b60006104678482850161042e565b91505092915050565b60008115159050919050565b61048581610470565b82525050565b60006020820190506104a0600083018461047c565b92915050565b6104af81610405565b82525050565b60006020820190506104ca60008301846104a6565b92915050565b600080fd5b6000601f19601f8301169050919050565b7f4e487b7100000000000000000000000000000000000000000000000000000000600052604160045260246000fd5b61051e826104d5565b810181811067ffffffffffffffff8211171561053d5761053c6104e6565b5b80604052505050565b60006105506103d1565b905061055c8282610515565b919050565b600080fd5b6000819050919050565b61057981610566565b811461058457600080fd5b50565b60008135905061059681610570565b92915050565b600080fd5b600080fd5b600067ffffffffffffffff8211156105c1576105c06104e6565b5b6105ca826104d5565b9050602081019050919050565b82818337600083830152505050565b60006105f96105f4846105a6565b610546565b905082815260208101848484011115610615576106146105a1565b5b6106208482856105d7565b509392505050565b600082601f83011261063d5761063c61059c565b5b813561064d8482602086016105e6565b91505092915050565b60006060828403121561066c5761066b6104d0565b5b6106766060610546565b9050600061068684828501610587565b600083015250602082013567ffffffffffffffff8111156106aa576106a9610561565b5b6106b684828501610628565b60208301525060406106ca8482850161042e565b60408301525092915050565b6000602082840312156106ec576106eb6103db565b5b600082013567ffffffffffffffff81111561070a576107096103e0565b5b61071684828501610656565b91505092915050565b600082825260208201905092915050565b7f5573657220616c72656164792072656769737465726564000000000000000000600082015250565b600061076660178361071f565b915061077182610730565b602082019050919050565b6000602082019050818103600083015261079581610759565b9050919050565b6107a581610566565b82525050565b600081519050919050565b600082825260208201905092915050565b60005b838110156107e55780820151818401526020810190506107ca565b838111156107f4576000848401525b50505050565b6000610805826107ab565b61080f81856107b6565b935061081f8185602086016107c7565b610828816104d5565b840191505092915050565b61083c81610405565b82525050565b600060608301600083015161085a600086018261079c565b506020830151848203602086015261087282826107fa565b91505060408301516108876040860182610833565b508091505092915050565b600060208201905081810360008301526108ac8184610842565b90509291505056fea2646970667358221220a1c753e5ae642963488ae61c592141aedd727e11d46a67985bb896f7b6db2d9064736f6c634300080a0033",
  "linkReferences": {},
  "deployedLinkReferences": {}
}