{
  "_format": "hh-sol-artifact-1",
  "contractName": "ScoreBallot",
  "sourceName": "contracts/facets/votingApp/ballot/ScoreBallot.sol",
  "abi": [
    {
      "inputs": [
        {
          "internalType": "uint256",
          "name": "_candidate",
          "type": "uint256"
        }
      ],
      "name": "addCandidate",
      "outputs": [],
      "stateMutability": "nonpayable",
      "type": "function"
    },
    {
      "inputs": [],
      "name": "getCandidateCount",
      "outputs": [
        {
          "internalType": "uint256",
          "name": "",
          "type": "uint256"
        }
      ],
      "stateMutability": "view",
      "type": "function"
    },
    {
      "inputs": [],
      "name": "getCandidates",
      "outputs": [
        {
          "internalType": "uint256[]",
          "name": "",
          "type": "uint256[]"
        }
      ],
      "stateMutability": "view",
      "type": "function"
    },
    {
      "inputs": [],
      "name": "getVoteArr",
      "outputs": [
        {
          "internalType": "uint256[][]",
          "name": "",
          "type": "uint256[][]"
        }
      ],
      "stateMutability": "nonpayable",
      "type": "function"
    },
    {
      "inputs": [
        {
          "internalType": "uint256",
          "name": "_candidate",
          "type": "uint256"
        },
        {
          "internalType": "uint256",
          "name": "_weight",
          "type": "uint256"
        }
      ],
      "name": "getVoteCount",
      "outputs": [
        {
          "internalType": "uint256",
          "name": "",
          "type": "uint256"
        }
      ],
      "stateMutability": "view",
      "type": "function"
    },
    {
      "inputs": [
        {
          "internalType": "address",
          "name": "_voter",
          "type": "address"
        }
      ],
      "name": "getVoteStatus",
      "outputs": [
        {
          "internalType": "bool",
          "name": "",
          "type": "bool"
        }
      ],
      "stateMutability": "view",
      "type": "function"
    },
    {
      "inputs": [
        {
          "internalType": "address",
          "name": "_contractOwner",
          "type": "address"
        }
      ],
      "name": "initialize",
      "outputs": [],
      "stateMutability": "nonpayable",
      "type": "function"
    },
    {
      "inputs": [
        {
          "internalType": "address",
          "name": "_voter",
          "type": "address"
        },
        {
          "internalType": "uint256",
          "name": "_candidate",
          "type": "uint256"
        },
        {
          "internalType": "uint256",
          "name": "_score",
          "type": "uint256"
        },
        {
          "internalType": "uint256[]",
          "name": "voteArr",
          "type": "uint256[]"
        }
      ],
      "name": "vote",
      "outputs": [],
      "stateMutability": "nonpayable",
      "type": "function"
    }
  ],
  "bytecode": "0x608060405234801561001057600080fd5b5061104e806100206000396000f3fe608060405234801561001057600080fd5b50600436106100885760003560e01c8063afa524081161005b578063afa5240814610115578063c4d66de814610133578063de2e19a01461014f578063e844d0971461017f57610088565b806306a49fce1461008d57806330a56347146100ab578063521b0dcc146100c9578063a1818ac4146100f9575b600080fd5b61009561019b565b6040516100a2919061080b565b60405180910390f35b6100b36101f3565b6040516100c0919061083c565b60405180910390f35b6100e360048036038101906100de91906108c9565b6101ff565b6040516100f09190610911565b60405180910390f35b610113600480360381019061010e9190610ab1565b610255565b005b61011d610636565b60405161012a9190610c65565b60405180910390f35b61014d600480360381019061014891906108c9565b610640565b005b61016960048036038101906101649190610c87565b6106f5565b604051610176919061083c565b60405180910390f35b61019960048036038101906101949190610cc7565b610717565b005b606060008054806020026020016040519081016040528092919081815260200182805480156101e957602002820191906000526020600020905b8154815260200190600101908083116101d5575b5050505050905090565b60008080549050905090565b6000600160008373ffffffffffffffffffffffffffffffffffffffff1673ffffffffffffffffffffffffffffffffffffffff16815260200190815260200160002060009054906101000a900460ff169050919050565b600260009054906101000a900473ffffffffffffffffffffffffffffffffffffffff1673ffffffffffffffffffffffffffffffffffffffff163373ffffffffffffffffffffffffffffffffffffffff16146102e5576040517f08c379a00000000000000000000000000000000000000000000000000000000081526004016102dc90610d77565b60405180910390fd5b60001515600160008673ffffffffffffffffffffffffffffffffffffffff1673ffffffffffffffffffffffffffffffffffffffff16815260200190815260200160002060009054906101000a900460ff16151514610378576040517f08c379a000000000000000000000000000000000000000000000000000000000815260040161036f90610de3565b60405180910390fd5b60001515600560008673ffffffffffffffffffffffffffffffffffffffff1673ffffffffffffffffffffffffffffffffffffffff168152602001908152602001600020600085815260200190815260200160002060009054906101000a900460ff1615151461041c576040517f08c379a000000000000000000000000000000000000000000000000000000000815260040161041390610e75565b60405180910390fd5b600080549050600660008673ffffffffffffffffffffffffffffffffffffffff1673ffffffffffffffffffffffffffffffffffffffff16815260200190815260200160002054106104a2576040517f08c379a000000000000000000000000000000000000000000000000000000000815260040161049990610f07565b60405180910390fd5b816003600085815260200190815260200160002060008282546104c59190610f56565b925050819055506001600660008673ffffffffffffffffffffffffffffffffffffffff1673ffffffffffffffffffffffffffffffffffffffff168152602001908152602001600020600082825461051c9190610f56565b925050819055506001600560008673ffffffffffffffffffffffffffffffffffffffff1673ffffffffffffffffffffffffffffffffffffffff168152602001908152602001600020600085815260200190815260200160002060006101000a81548160ff021916908315150217905550600080549050600660008673ffffffffffffffffffffffffffffffffffffffff1673ffffffffffffffffffffffffffffffffffffffff1681526020019081526020016000205414156106305760018060008673ffffffffffffffffffffffffffffffffffffffff1673ffffffffffffffffffffffffffffffffffffffff16815260200190815260200160002060006101000a81548160ff0219169083151502179055505b50505050565b6060808091505090565b60001515600260149054906101000a900460ff16151514610696576040517f08c379a000000000000000000000000000000000000000000000000000000000815260040161068d90610ff8565b60405180910390fd5b80600260006101000a81548173ffffffffffffffffffffffffffffffffffffffff021916908373ffffffffffffffffffffffffffffffffffffffff1602179055506001600260146101000a81548160ff02191690831515021790555050565b6000600191506003600084815260200190815260200160002054905092915050565b600081908060018154018082558091505060019003906000526020600020016000909190919091505550565b600081519050919050565b600082825260208201905092915050565b6000819050602082019050919050565b6000819050919050565b6107828161076f565b82525050565b60006107948383610779565b60208301905092915050565b6000602082019050919050565b60006107b882610743565b6107c2818561074e565b93506107cd8361075f565b8060005b838110156107fe5781516107e58882610788565b97506107f0836107a0565b9250506001810190506107d1565b5085935050505092915050565b6000602082019050818103600083015261082581846107ad565b905092915050565b6108368161076f565b82525050565b6000602082019050610851600083018461082d565b92915050565b6000604051905090565b600080fd5b600080fd5b600073ffffffffffffffffffffffffffffffffffffffff82169050919050565b60006108968261086b565b9050919050565b6108a68161088b565b81146108b157600080fd5b50565b6000813590506108c38161089d565b92915050565b6000602082840312156108df576108de610861565b5b60006108ed848285016108b4565b91505092915050565b60008115159050919050565b61090b816108f6565b82525050565b60006020820190506109266000830184610902565b92915050565b6109358161076f565b811461094057600080fd5b50565b6000813590506109528161092c565b92915050565b600080fd5b6000601f19601f8301169050919050565b7f4e487b7100000000000000000000000000000000000000000000000000000000600052604160045260246000fd5b6109a68261095d565b810181811067ffffffffffffffff821117156109c5576109c461096e565b5b80604052505050565b60006109d8610857565b90506109e4828261099d565b919050565b600067ffffffffffffffff821115610a0457610a0361096e565b5b602082029050602081019050919050565b600080fd5b6000610a2d610a28846109e9565b6109ce565b90508083825260208201905060208402830185811115610a5057610a4f610a15565b5b835b81811015610a795780610a658882610943565b845260208401935050602081019050610a52565b5050509392505050565b600082601f830112610a9857610a97610958565b5b8135610aa8848260208601610a1a565b91505092915050565b60008060008060808587031215610acb57610aca610861565b5b6000610ad9878288016108b4565b9450506020610aea87828801610943565b9350506040610afb87828801610943565b925050606085013567ffffffffffffffff811115610b1c57610b1b610866565b5b610b2887828801610a83565b91505092959194509250565b600081519050919050565b600082825260208201905092915050565b6000819050602082019050919050565b600082825260208201905092915050565b6000610b7c82610743565b610b868185610b60565b9350610b918361075f565b8060005b83811015610bc2578151610ba98882610788565b9750610bb4836107a0565b925050600181019050610b95565b5085935050505092915050565b6000610bdb8383610b71565b905092915050565b6000602082019050919050565b6000610bfb82610b34565b610c058185610b3f565b935083602082028501610c1785610b50565b8060005b85811015610c535784840389528151610c348582610bcf565b9450610c3f83610be3565b925060208a01995050600181019050610c1b565b50829750879550505050505092915050565b60006020820190508181036000830152610c7f8184610bf0565b905092915050565b60008060408385031215610c9e57610c9d610861565b5b6000610cac85828601610943565b9250506020610cbd85828601610943565b9150509250929050565b600060208284031215610cdd57610cdc610861565b5b6000610ceb84828501610943565b91505092915050565b600082825260208201905092915050565b7f4d7573742062652063616c6c65642066726f6d2074686520656c656374696f6e60008201527f206f7267616e697a657220636f6e747261637400000000000000000000000000602082015250565b6000610d61603383610cf4565b9150610d6c82610d05565b604082019050919050565b60006020820190508181036000830152610d9081610d54565b9050919050565b7f566f74657220616c726561647920766f74656400000000000000000000000000600082015250565b6000610dcd601383610cf4565b9150610dd882610d97565b602082019050919050565b60006020820190508181036000830152610dfc81610dc0565b9050919050565b7f566f74657220616c726561647920766f74656420666f7220746869732063616e60008201527f6469646174650000000000000000000000000000000000000000000000000000602082015250565b6000610e5f602683610cf4565b9150610e6a82610e03565b604082019050919050565b60006020820190508181036000830152610e8e81610e52565b9050919050565b7f4d617820766f74657320616c72656164792063617374656420627920766f746560008201527f7200000000000000000000000000000000000000000000000000000000000000602082015250565b6000610ef1602183610cf4565b9150610efc82610e95565b604082019050919050565b60006020820190508181036000830152610f2081610ee4565b9050919050565b7f4e487b7100000000000000000000000000000000000000000000000000000000600052601160045260246000fd5b6000610f618261076f565b9150610f6c8361076f565b9250827fffffffffffffffffffffffffffffffffffffffffffffffffffffffffffffffff03821115610fa157610fa0610f27565b5b828201905092915050565b7f416c726561647920496e697469616c697a656400000000000000000000000000600082015250565b6000610fe2601383610cf4565b9150610fed82610fac565b602082019050919050565b6000602082019050818103600083015261101181610fd5565b905091905056fea2646970667358221220731c979bd41e3312e5f3074ac271fce03e2185df47c727152ff6422981f7969464736f6c634300080a0033",
  "linkReferences": {},
  "deployedLinkReferences": {}
}